:101E75003F065B4F666D7D077F6F777C395E7971B5
:101E850076743854635C7367503E40231C000046EB
:101E9500FC60DAF266B6BEE0FEF6EE3E9C7A9E8EF9
:101EA5006E2E1C2AC63ACEE60A7C02C43800000013
:101762005400000000000000000000000000000023
:101772000000000000000042001D00004400B40010
:101782000000004200AF00004200C0000002290039
:1017920000014001014101012E00013300012B0033
:1017A20042001400006080002F00000000000000D2
:1017B2000000000000000000000000000000000027
:1017C2000000000000000000000000000000000017
:1017D2000000000000000000000000000000000007
:1017E20000000000000000000000000000000000F7
:1017F20000000000000000000000000000000000E7
:1018020000000000000000000000000000000000D6
:1018120000000000000000000000000000000000C6
:101822000000000000000000004800B800000000B6
:101832000000000050001F00000000000000000037
:1018420000000000000000012D00013B00013100FA
:101F2200C2A3C2A17F047E00121F33D2A37F047E0C
:011F320000AE
:101F3300EF1FAC0670011E4C60140000000000008F
:0F1F430000000000000000000000000080E2220B
:051DEB00A3E0FD7C00F7
:061DF000AB05AA04A907DF
:101DF600121F227D08C2A1895FE55F1392A27F01AF
:101E06007E00121F33E9C313F9D2A1DDE87D08C2B3
:101E1600A18B5FE55F1392A27F017E00121F33EA5A
:0D1E2600A2E713FAEB13FBD2A1DDE4C2A387
:011E3300228C
:021E3400A907FC
:101E36008D60AB01121F227A08C2A1EB1392A27F1A
:101E4600017E00121F33EBC313FBD2A1DAEB7A0833
:101E5600D2A1EDC313FDC2A17F017E00121F333054
:0E1E6600A203430580DAE9C2A3EDB560C3FF15
:011E7400224B
:101D9F00E4FDFC7F8E121DF0900016E0FD7C007FAD
:101DAF008C121DF07F88121DEB7F86121DEBA3E0B6
:101DBF00FD7C007F84121DF0A3E0FD7C007F82126A
:101DCF001DF0E4FDFC7F80121DF07DAA7C007F904A
:0C1DDF00121DF07D807C007F8E021DF044
:0D20ED00E4F5C7F5C5F5C675C380F5C4223E
:071FF600FFE43EFEA3E0FD45
:101FFD0075C78275C502AB078BC48EC3C374FF9DB5
:0C200D00F5C275C65A75C6A5000220ED8C
:101CD200E54B7F0025E0FE121D35900016EFF0E582
:101CE2004B25E0FEE42401FFE43EFE121D35A3EF86
:101CF200F0E54B25E0FEE42402FFE43EFE121D3532
:101D0200A3EFF0E54B25E0FEE42403FFE43EFE12E0
:101D12001D35A3EFF0E54B25E0FEE42404FFE43E8D
:101D2200FE121D35A3EFF0E54B25E0FEE42405FF8E
:031D3200E43EFE8E
:101D350075C78275C501AD078DC48EC375C65A7545
:0C1D4500C6A500C374FF95C2FF1220ED7C
:011D5100226F
:07205600E54B7F0025E0FED1
:10205D0075C78275C503AD078DC48EC375C65A7518
:06206D00C6A5000220EDF3
:101D5200C298E54F25E0F54E85994FE54F624E85D5
:081D62004E5CAD51AC50AF4ED8
:101D6A008C5F8D60EF6260E4FDE56030E013E55F53
:101D7A00C313F55FE56013F560635FA063600180DC
:101D8A000BE55FC313F55FE56013F5600DBD08D978
:041D9A00AE5FAF6029
:011D9E002222
:061C4F00D2B2C2B6C2A52C
:101C5500309879C29885995FE55FB4E90CE52DB4B4
:101C6500E90405318003E4F531E55FB4ED0CE52DBC
:101C7500B4ED0405318003E4F531E53B64EB703CDC
:101C8500E52DD394205018C299E52DFE7C00E4255E
:101C95005FFFEC3EFE121D358F9920991F80FBE5F5
:101CA5002DC394804016E52DD39490500F432D01FC
:101CB500C299AF2D121E348F993099FD852D3B8524
:0C1CC5005F2DE531D3940A400375C72061
:011CD10022F0
:1000BE00E4F55790002093F558A3E493F559A3E483
:1000CE0093F55AE4F55BF552D20CD2AFC298C20644
:1000DE00F54AF54BC3E54B94C8E54A94004003023C
:1000EE0004E530060A054BE54B7002054AC20630A0
:1000FE0098E2C29885994EE54E64ED60030202F9CE
:10010E00E54EB4ED12C2997599AA3098FDC2988544
:10011E00994F854F4E80E974FFF550F551121D64CD
:10012E008E508F51E4F54AF54B3098FDC298E54F4D
:10013E0025E0F54E85994FE54F624E854E5E121DB8
:10014E00648E508F513098FDC298E54F25E0F54EE4
:10015E0085994FE54F624E854E5D121D648E508F10
:10016E00513098FD121D528E508F51054BE54B703C
:10017E0002054AC39403E54A940040ADAF5EAE5DFE
:10018E00AD5CAC5B8F568E558D548C53E4F54AF5B1
:10019E004B3098FD121D528E508F513098FDC298E3
:1001AE00E54F25E0F54E85994FE54F624E854E5D44
:1001BE00121D648E508F513098FDC298E54F25E088
:1001CE00F54E85994FE54F624E854E5E121D648E3B
:1001DE00508F51AF5AAE59AD58AC57AB5EAA5DA910
:1001EE005CA85BC31214637003755201054BE54B9B
:1001FE007002054AC394E8E54A940340943098FD92
:10020E00121D528E508F513098FD121D528E508FEE
:10021E0051E551455060030202D1E552640160037D
:10022E000202CC754E55F54AF54BE4F552E5527087
:10023E0077122056E54B25E0FEAD54121FFDE54B1F
:10024E0025E0FEEF2401FFE43EFEAD55121FFDE555
:10025E004B25E0FEE42402FFE43EFEAD56121FFDE8
:10026E00E54B25E0FEE42401121D31EFB555047C6B
:10027E000180027C00E54B7F0025E0FE121D35EF6C
:10028E00B554047F0180027F00EF5CFCE54B25E056
:10029E00FEE42402121D31EFB556047F0180027F69
:1002AE0000EF5CF55202023B054BE54B7002054A2E
:1002BE00C39403E54A940050030202388008754E39
:1002CE00E18003754EEEE4F54AF54BC3E54B94051C
:1002DE00E54A940040030200E2C299854E99309996
:1002EE00FD054BE54B70E4054A80E0E54E64E960A0
:1002FE00030200E2E54EB4E912C2997599A5309851
:10030E00FDC29885994F854F4E80E974FFF550F5E3
:10031E0051121D648E508F513098FDC298E54F25B5
:10032E00E0F54E85994FE54F624E854E5E121D6487
:10033E008E508F513098FDC298E54F25E0F54E85D1
:10034E00994FE54F624E854E5D121D648E508F5152
:10035E003098FD121D528E508F51AF5EAE5DAD5C6A
:10036E00AC5B8F568E558D548C533098FDC298E5EC
:10037E004F25E0F54E85994FE54F624E854E5E1244
:10038E001D648E508F513098FDC298E54F25E0F5D3
:10039E004E85994FE54F624E854E5D121D648E500F
:1003AE008F513098FD121D528E508F513098FDC2D4
:1003BE0098E54F25E0F54E85994FE54F624E121D9B
:1003CE00648E508F513098FDC298E54F25E0F54E62
:1003DE0085994FE54F624E121D648E508F51E55137
:1003EE00455060030204BDF552E55260030204A8B5
:1003FE00FDFC7F8E121DF0AF56EFFD7C007F80124C
:10040E001DF0AF55EFFD7C007F82121DF0AF54EF53
:10041E00FD7C007F84121DF0AF5EAE5DAD5CAC5B0B
:10042E008F568E558D548C53AF56EFFD7C007F86C4
:10043E00121DF0AF55EFFD7C007F88121DF0AF54FA
:10044E00EFFD7C007F8C121DF07DAA7C007F901248
:10045E001DF07D807C007F8E121DF07F89121E3470
:10046E00EFB555067F01C00780047F00C0077F8768
:10047E00121E34EFB556047E0180027E00D0E05E7F
:10048E00FFC0077F8D121E34EFB554047E0180022B
:10049E007E00D0E05EF5520203F77F007E10122040
:1004AE005DE4FD121FFDD2A5D2B6754E55800375C3
:1004BE004EEEE4F54AF54BC3E54B9405E54A940040
:1004CE0040030200E2C299854E993099FD054BE535
:1004DE004B70E4054A80E07F8F121E348F4EE54E3E
:1004EE00547F70F37F81121E348F4EE54E20E7034A
:1004FE000209D2E4F54FF552F54A754B04F54C75E9
:10050E004D05E54D25E0FEE42401121D31AC07E555
:10051E004B25E0FEE42401121D31EFB504047C01ED
:10052E0080027C00E54D7F0025E0FE121D35AB07F5
:10053E00E54B7F0025E0FE121D35EFB503047F016C
:10054E0080027F00EF5CFCE54D25E0FEE424021204
:10055E001D31AB07E54B25E0FEE42402121D31EF01
:10056E00B503047F0180027F00EF5CFCE54D25E0C2
:10057E00FEE42403121D31AB07E54B25E0FEE42417
:10058E0003121D31EFB503047F0180027F00EF5C83
:10059E00FCE54D25E0FEE42404121D31AB07E54BCE
:1005AE0025E0FEE42404121D31EFB503047F018023
:1005BE00027F00EF5CFCE54D121D2BAB07121D29CF
:1005CE00EFB503047F0180027F00EF5CFFE5527000
:1005DE00047E0180027E00EE5F6009121CD2A3EF42
:1005EE00F0755201754A00754B04754C00754D0639
:1005FE00E54D25E0FEE42401121D31AC07E54B2547
:10060E00E0FEE42401121D31EFB504047C018002EA
:10061E007C00E54D7F0025E0FE121D35AB07E54B56
:10062E007F0025E0FE121D35EFB503047F01800229
:10063E007F00EF5CFCE54D25E0FEE42402121D3147
:10064E00AB07E54B25E0FEE42402121D31EFB503A6
:10065E00047F0180027F00EF5CFCE54D25E0FEE4A7
:10066E002403121D31AB07E54B25E0FEE4240312F3
:10067E001D31EFB503047F0180027F00EF5CFCE5C6
:10068E004D25E0FEE42404121D31AB07E54B25E0B9
:10069E00FEE42404121D31EFB503047F0180027FB6
:1006AE0000EF5CFCE54D121D2BAB07121D29EFB5BB
:1006BE0003047F0180027F00EF5CFFE55270047E31
:1006CE000180027E00EE5F6009121CD2A3EFF0756E
:1006DE005201754A00754B05754C00754D06E54D7A
:1006EE0025E0FEE42401121D31AC07E54B25E0FEAA
:1006FE00E42401121D31EFB504047C0180027C005C
:10070E00E54D7F0025E0FE121D35AB07E54B7F0062
:10071E0025E0FE121D35EFB503047F0180027F0038
:10072E00EF5CFCE54D25E0FEE42402121D31AB0723
:10073E00E54B25E0FEE42402121D31EFB503047FE4
:10074E000180027F00EF5CFCE54D25E0FEE4240312
:10075E00121D31AB07E54B25E0FEE42403121D31DB
:10076E00EFB503047F0180027F00EF5CFCE54D25B1
:10077E00E0FEE42404121D31AB07E54B25E0FEE458
:10078E002404121D31EFB503047F0180027F00EFB8
:10079E005CFCE54D121D2BAB07121D29EFB50304B2
:1007AE007F0180027F00EF5CFFE55270047E0180C6
:1007BE00027E00EE5F6009121CD2A3EFF0755201AB
:1007CE00900016E0754A00F54B754C00E54B540F42
:1007DE00F54DE54AC4F854F0C868F54AE54BC454E3
:1007EE000F48F54BAE4AFF7C007D0A12130AE54D09
:1007FE002FF54BE54C3EF54AD3E54B9463E54A9411
:10080E00004003E4F552900017E0754A00F54B7571
:10081E004C00E54B540FF54DE54AC4F854F0C8684A
:10082E00F54AE54BC4540F48F54BAE4AFF7C007DAC
:10083E000A12130AE54D2FF54BE54C3EF54A454B92
:10084E0070047F0180027F00D3E54B940CE54A943F
:10085E000040047E0180027E00EE4F6003E4F552FC
:10086E00900018E0754A00F54B754C00E54B540F9F
:10087E00F54DE54AC4F854F0C868F54AE54BC45442
:10088E000F48F54BAE4AFF7C007D0A12130AE54D68
:10089E002FF54BE54C3EF54A454B70047F01800227
:1008AE007F00D3E54B941FE54A940040047E0180FF
:1008BE00027E00EE4F6003E4F5527F007E10121DA3
:1008CE0035754A008F4BD3E54B940AE54A940040A8
:1008DE0009E4F552C2A5C2B680127F007E10122026
:1008EE005DE54B04FD121FFDD2A5D2B6E5526006A2
:1008FE00121D9F0209D2121C4F3006FD054BE54B0F
:10090E007002054AC206AE4AFFE4FCFD7B507AC374
:10091E00F9F8C312144D5005E4F54AF54BAE4AAF43
:10092E004B7C007D6412131C8D4EE54EB4010912F2
:10093E001EB5539AFD852C9BAE4AAF4B7C277D107E
:10094E0012131C8F4E752F07E54EB4021C9000201B
:10095E00E493F54FE54E24FE9000B1F0E54FC454FC
:10096E000FA3F0E54F540FA3F0E54EB4031C900017
:10097E0021E493F54FE54E24FE9000B1F0E54FC40F
:10098E00540FA3F0E54F540FA3F0E54EB4041C90A2
:10099E000022E493F54FE54E24FE9000B1F0E54FB2
:1009AE00C4540FA3F0E54F540FA3F0E54EC39402C9
:1009BE0040030209049000B1740AF0E4A3F0A3040A
:1009CE00F00209047F91121E348F4EE54E64AA7018
:1009DE0003020AB4E4F54F121C4F3006FD054BE539
:1009EE004B7002054AC206AE4AFFE4FCFD7B507A0C
:1009FE00C3F9F8C312144D5005E4F54AF54BAE4A4F
:100A0E00AF4B7C007D6412131C8D4EE54EB4010974
:100A1E00121EB5539AFD852C9BAE4AAF4B7C277D9B
:100A2E001012131C8F4E752F07E54EB4021C90004A
:100A3E0020E493F54FE54E24FE9000B1F0E54FC44F
:100A4E00540FA3F0E54F540FA3F0E54EB4031C90E2
:100A5E000021E493F54FE54E24FE9000B1F0E54FF2
:100A6E00C4540FA3F0E54F540FA3F0E54EB4041C8D
:100A7E00900022E493F54FE54E24FE9000B1F0E590
:100A8E004FC4540FA3F0E54F540FA3F0E54EC3949B
:100A9E000240030209E59000B1740AF0E4A3F0A34A
:100AAE007403F00209E5E4F55390800093F4F554D5
:100ABE00A3E493F4F555A3E493F4F556E4F55790B7
:100ACE00820093F4F558A3E493F4F559A3E493F458
:100ADE00F55AAF5AAE59AD58AC57AB56AA55A954A4
:100AEE00A853C31214637003020B8078537C007DED
:100AFE00007B007A0079577E007F041212E4E4F541
:100B0E005790840093F4F558A3E493F4F559A3E4B5
:100B1E0093F4F55AAF5AAE59AD58AC57AB56AA55D9
:100B2E00A954A853C3121463604878537C007D0007
:100B3E007B007A0079577E007F041212E4E4F557A9
:100B4E0090800093F4F558A3E493F4F559A3E4933D
:100B5E00F4F55AAF5AAE59AD58AC57AB56AA55A983
:100B6E0054A853C31214636009E4F556F555F554B1
:100B7E00F553E4F55B7F8D121E348F5C7F89121E58
:100B8E00348F5D7F87121E348F5EAF56AE55AD54D7
:100B9E00AC53AB5EAA5DA95CA85BD3121463500381
:100BAE00020C83121C4F3006FD054BE54B700205FF
:100BBE004AC206AE4AFFE4FCFD7B507AC3F9F8C385
:100BCE0012144D5005E4F54AF54BAE4AAF4B7C007E
:100BDE007D6412131C8D4EE54EB4010C752C211242
:100BEE001EB8539AFD852C9BAE4AAF4B7C277D10C9
:100BFE0012131C8F4E752F07E54EB4021C90002069
:100C0E00E493F54FE54E24FE9000B1F0E54FC45449
:100C1E000FA3F0E54F540FA3F0E54EB4031C900064
:100C2E0021E493F54FE54E24FE9000B1F0E54FC45C
:100C3E00540FA3F0E54F540FA3F0E54EB4041C90EF
:100C4E000022E493F54FE54E24FE9000B1F0E54FFF
:100C5E00C4540FA3F0E54F540FA3F0E54EC3940216
:100C6E004003020BB19000B1740AF0E4A3F0A37438
:100C7E0002F0020BB17F8D121E34900016EFF07F42
:100C8E0089121E34A3EFF07F87121E34A3EFF07F7C
:100C9E0085121E34A3EFF07F83121E34A3EFF07F74
:100CAE0081121E34A3EFF0754A00754B04E4F55221
:100CBE00E5526003020DA6122056E54B25E0FE908C
:100CCE000016E0FD121FFDE54B25E0FEEF2401129C
:100CDE001FF6E54B25E0FEE42402121FF6E54B2538
:100CEE00E0FEE42403121FF6E54B25E0FEE42404A7
:100CFE00121FF6E54B25E0FEE42405121FF6E54B28
:100D0E0025E0FEE42401121D31900017E0B5070422
:100D1E007C0180027C00E54B7F0025E0FE121D3534
:100D2E00900016E0B507047F0180027F00EF5CFCA7
:100D3E00E54B25E0FEE42402121D31900018E0B5CB
:100D4E0007047F0180027F00EF5CFCE54B25E0FE8F
:100D5E00E42403121D31900019E0B507047F0180D1
:100D6E00027F00EF5CFCE54B25E0FEE42404121D3F
:100D7E003190001AE0B507047F0180027F00EF5C1E
:100D8E00FC121D2990001BE0B507047F0180027F35
:100D9E0000EF5CF552020CBE054BE54B7002054AA6
:0E0DAE00C39406E54A94005003020CBBC20C2D
:010DBC002214
:10203800EF1392C3EFA2E192C2A2E292FBA2E39253
:0E204800FAA2E492F9A2E592C1A2E692F82271
:101EEF00E52F24FD600D04700F900021E4937E0018
:101EFF00FF800D9000228003900020E493FF7E006E
:101F0F00EF540FF547EEC4F854F0C8EFC4540F4820
:021F1F00F54883
:011F2100229D
:101613001538E538702F753864D390001EE0943B7D
:1016230090001DE09402500FE53925E0543FF53951
:101633007010753901800BE539C313F539700375E3
:10164300392085394990001DE0FEA3E0FFD3943B88
:10165300EE9402505AC3743B9FFB74029EFAD3EB81
:1016630094C7EA94004002805D7C007D0AAF03AE1C
:101673000212131C8D477C007D0AAF03AE021213C6
:101683001CAA06AB077C007D0A12131C8D487C0044
:101693007D0AAF03AE0212131C7C007D0A12131CD9
:1016A30074752DF582741E3CF583E493F5492290FD
:1016B300001EE024C5FB90001DE034FDFAD3EB943B
:1016C300C7EA940040307C007D0AAF03AE021213D8
:1016D3001C8D477C007D0AAF03AE0212131CAA06C1
:1016E300AB077C007D0A12131C8D487C007D0AAF7A
:1016F30003AE0202131CD3EB9463EA94007C007DD7
:101703000AAF03AE02402C12131C8D477C007D0AE6
:10171300AF03AE0212131CAA06AB077C007D0A12AC
:10172300131C8D487C007D0AAF03AE0212131C7597
:1017330049462212131C8D477C007D0AAF03AE027B
:1017430012131CAA06AB077C007D0A12131C8D48DA
:0E1753007C007D0AAF03AE0212131C754940E4
:011761002265
:101F5200E52C541FFB7C007D0AFF7E0012131C8DB2
:101F6200477C007D0AAF037E0012131C7C007D0AB1
:0F1F720012131C8D48E52CC41354075403F54972
:011F8100223D
:0D20DF00E549540FF547E549C4540FF54895
:0120EC0022D1
:0100060022D7
:0100070022D6
:101FAA00E52F24FC601014601014601014601024D3
:101FBA0004700F021EEF021613021F520220DF02E4
:061FCA00000612000722D0
:10209000EF700475BCE322BF010475BCE422BF02EB
:0C20A0000475BCE522BF030375BCE222FE
:10207300E4FFFEE4FDFC0DBD00010CBC01F8BDF462
:0C208300F50FBF00010EEF64644E70E723
:01208F00222E
:0100080022D5
:101FD000E4F5BDF5BE43972075BCEA0000000000A3
:101FE0000000000000E5BC30E4FB53BCEFAFBDEFE8
:051FF000FEADBEEDFF97
:011FF50022C9
:1014800020CA0E900001E0C394C85011E004F0801F
:101490000C900001E0D394004003E014F020840E8F
:1014A000900002E0C394C85011E004F0800C90005A
:1014B00002E0D394004003E014F020830E90000378
:1014C000E0C394C85011E004F0800C900003E0D316
:1014D00094004003E014F020A70E900007E0C394AE
:1014E000C85011E004F0800C900007E0D394004055
:1014F00003E014F020FC0E900008E0C394C85011E3
:10150000E004F0800C900008E0D394004003E01465
:10151000F020FD0E900009E0C394C85011E004F0E3
:10152000800C900009E0D394004003E014F0208385
:1015300018E4F529F52A752E01D20B90000AE0C3B4
:1015400094C85011E004F0800C90000AE0D394009D
:101550004003E014F020FF0E90000BE0C394C8504D
:1015600011E004F0800C90000BE0D394004003E005
:1015700014F020C50E90000CE0C394C85011E00494
:10158000F0800C90000CE0D394004003E014F020B5
:10159000C60E90000DE0C394C85011E004F0800C1A
:1015A00090000DE0D394004003E014F020821EA2CE
:1015B00082E433F541E4F529F52A752E01D20B902A
:1015C000000EE0C394C85011E004F0800C90000EAF
:1015D000E0D394004003E014F020810E90000FE06F
:1015E000C394C85011E004F0800C90000FE0D39435
:1015F000004003E014F020820D900010E0C394C876
:101600005010E004F022900010E0D394004003E07A
:0316100014F022B1
:1019F00085430885440A854509300003021A93E5AA
:101A000009C3942850047F0180027F00E508C39435
:101A10002850047E0180027E00EE5FFFE50AC39439
:101A20002850047E0180027E00EE5F6066E508C3F8
:101A300095095030E50A950840047F0180027F0037
:101A4000E50AC3950950047E0180027E00EE5F60C6
:101A500008E524603E1524803AE524C394C8503339
:101A60000524802FE50AD3950840047F0180027F7A
:101A700000E50AC3950950047E0180027E00EE4F06
:101A80006008E524600D15248009E524C394C8503E
:101A9000020524E524D394644008752496752C67C8
:041AA000D200A200CE
:011AA400221F
:100DBD00E530D3949B400302103F9000BAE0FCA3B2
:100DCD00E0FDE41211DB7B7C7AEF790D7842121194
:100DDD0069600840067F01C00780047F00C007904E
:100DED0000B8E0FCA3E0FDE41211DB7B7C7AEF7927
:100DFD000D7842121169600640047E0180027E006A
:100E0D00D0E05EFFC0079000BCE0FCA3E0FDE41263
:100E1D0011DB7B7C7AEF790D784212116960064007
:100E2D00047E0180027E00D0E05EFFC0079000BE10
:100E3D00E0FCA3E0FDE41211DB7B7C7AEF790D7809
:100E4D0042121169600640047E0180027E00D0E0EE
:100E5D005E600302103F300E709000BAE0FCA3E01C
:100E6D00FDE41211DB7B3A7AE779D47842121169ED
:100E7D0050067F01C00780047F00C0079000B8E0D6
:100E8D00FCA3E0FDE41211DB7B3A7AE779D47842DA
:100E9D0012116950047E0180027E00D0E05EFFC019
:100EAD00079000BCE0FCA3E0FDE41211DB7B3A7A75
:100EBD00E779D4784212116950047E0180027E00D8
:100ECD00D0E05E6076C20E807B9000BAE0FCA3E0BD
:100EDD00FDE41211DB7B3A7AE779D478421211697D
:100EED00600840067F01C00780047F00C0079000A6
:100EFD00B8E0FCA3E0FDE41211DB7B3A7AE779D48C
:100F0D007842121169600640047E0180027E00D095
:100F1D00E04EFFC0079000BCE0FCA3E0FDE4121121
:100F2D00DB7B3A7AE779D478421211696006400486
:100F3D007E0180027E00D0E04E6007D20E752C75CA
:100F4D008002C20E300D769000BAE0FCA3E0FDE405
:100F5D001211DB7B7C7AEF790D78431211696008F1
:100F6D0040067F01C00780047F00C0079000B8E0F5
:100F7D00FCA3E0FDE41211DB7B7C7AEF790D784365
:100F8D00121169600640047E0180027E00D0E05E91
:100F9D00FFC0079000BCE0FCA3E0FDE41211DB7B79
:100FAD007C7AEF790D7843121169600640047E0159
:100FBD0080027E00D0E05E6070C20D80759000BA38
:100FCD00E0FCA3E0FDE41211DB7B7C7AEF790D7878
:100FDD004312116950067F01C00780047F00C007CE
:100FED009000B8E0FCA3E0FDE41211DB7B7C7AEF0E
:100FFD00790D784312116950047E0180027E00D074
:10100D00E04EFFC0079000BCE0FCA3E0FDE4121130
:10101D00DB7B7C7AEF790D784312116950047E01E8
:10102D0080027E00D0E04E6007D20D752C748002D8
:10103D00C20DE53AD394014004C20DC20E9000BA20
:10104D00E0FCA3E0FDE41211DB7B7C7AEF790D78F7
:10105D0042121169600840067F01C00780047F00BD
:10106D00C0079000B8E0FCA3E0FDE41211DB7B7C2F
:10107D007AEF790D7842121169600640047E018085
:10108D00027E00D0E04EFFC0079000BCE0FCA3E064
:10109D00FDE41211DB7B7C7AEF790D784212116938
:1010AD00600640047E0180027E00D0E04EFFC00746
:1010BD009000BEE0FCA3E0FDE41211DB7B7C7AEF37
:1010CD00790D7842121169600640047E0180027E1E
:1010DD0000D0E04EFFC0079000BAE0FCA3E0FDE4B5
:1010ED001211DB7B3A7AE779D478421211695006F6
:1010FD007F01C00780047F00C0079000B8E0FCA30B
:10110D00E0FDE41211DB7B3A7AE779D478421211D3
:10111D006950047E0180027E00D0E04EFFC0079032
:10112D0000BCE0FCA3E0FDE41211DB7B3A7AE77929
:10113D00D4784212116950047E0180027E00D0E005
:10114D004EFED0E05E6007D201752C688002C201B0
:0C115D001219F0A20E720D720172002235
:10192C00D39000B0E094F49000AFE094014034E028
:10193C00FEA3E0FBAA06E4F9F89000B4E0FCA3E0F7
:10194C00FDA3E0FEA3E0FF1213AD90001DEEF0A38B
:10195C00EFF0E4FCFD9000B41214749000AFE4F0CE
:10196C00A304F090001DE0F599C2993099FDC2993D
:10197C0090001DA3E0F5993099FDC390001EE094F2
:10198C004090001DE094024035200B32E52E702E65
:10199C00200B26E52E700BC2A4C2B5752C6AD2079B
:1019AC008004D2A4D2B5E52B700AC2A4C2B5752CA2
:1019BC006AD20722E4F52B8000D2A4D2B522C20B46
:1019CC00C207D2A4D2B5052AE52A70020529AE2990
:1019DC00FFE4FCFD7B507AC3F9F8C312144D50039D
:0419EC00E4F52E22CE
:101AA500D210C20B900000E0C394325003752C2174
:101AB500900001E0C394325003752C21900002E0A0
:101AC500C394325005752C238066900003E0C394BF
:101AD500325005752C228058900004E0C394325092
:101AE50005752C21804A900005E0C3943250057598
:101AF5002C31803C900006E0C394325005752C30A3
:101B0500802E900007E0C394325005752C64802028
:101B1500900008E0C394325005752C728012900035
:101B250009E0C394325005752C698004C210D20BAC
:021B3500A210FC
:011B3700228B
:1020AC00D21190000AE0D394004009D205752C029D
:0A20BC00D20B8004C211C20BA21166
:0120C60022F7
:1020C700D21290000EE0D394964006D205D20B8030
:0720D70004C212C20BA212A9
:0120DE0022DF
:0D20FA00C20B300504752C0122E4F52C22E8
:101F8200E530D394EB4014300005C2B27530FF90B7
:101F9200000EE0D39496400FC2B322A200720772E1
:081FA20001720A92B2C2B322DF
:031EB500752C2168
:101EB800E4FFE52C30E0010FE52C30E1010FE52CC3
:101EC80030E2010FE52C30E3010FE52C30E4010F7F
:101ED800E52C30E5010FE52C30E6010FEF30E00688
:061EE8007480252CF52C8E
:011EEE0022D1
:10201900758DFB758BFB75985875D6FF75D710753F
:0F2029009A5875AC98758498758E14438E012261
:03000B0002185385
:10185300C0E0C0F0C083C082C0D075D000C000C05B
:0D18630001C002C003C004C005C006C007DC
:10187000758CFE758ACD75C13E9000C1E004F07094
:10188000069000C0E004F0D39000C1E0940F9000F7
:10189000C0E09427400FE52F94045002052F9000DC
:1018A000C0E4F0A3F0300503752F05300C07121FBC
:1018B000AAD206805CE546703C9000B4E0F8A3E054
:1018C000F9A3E0FAA3E0FB900035E0FEA3E0FFE41B
:1018D000FCFDEB2FFFEA3EFEED39FDEC38FC9000FD
:1018E000B41214749000B0E004F070069000AFE001
:1018F00004F012192C121FD0E54625E0242FF582A2
:10190000E43400F583EEF0A3EFF0E546045403F56C
:011910004690
:10191100D007D006D005D004D003D002D001D0002A
:0B192100D0D0D082D083D0F0D0E032D4
:03000300022107D0
:0A210700C2997599002099F880FB39
:03001300022111B6
:0A211100C2997599022099F880FB2D
:03001B0002211BA4
:0A211B00C2997599032099F880FB22
:0300230002212592
:0A212500C2997599042099F880FB17
:03002B0002212F80
:0A212F00C2997599052099F880FB0C
:030033000221396E
:0A213900C2997599062099F880FB01
:03003B000221435C
:0A214300C2997599072099F880FBF6
:0300430002214D4A
:0A214D00C2997599082099F880FBEB
:03004B0002215738
:0A215700C2997599092099F880FBE0
:0300530002216126
:0A216100C2997599102099F880FBCF
:03005B0002216B14
:0A216B00C2997599112099F880FBC4
:0300630002217502
:0A217500C2997599122099F880FBB9
:03006B0002217FF0
:0A217F00C2997599132099F880FBAE
:03007300022189DE
:0A218900C2997599142099F880FBA3
:03007B00022193CC
:0A219300C2997599152099F880FB98
:0300830002219DBA
:0A219D00C2997599162099F880FB8D
:03008B000221A7A8
:0A21A700C2997599172099F880FB82
:030093000221B196
:0A21B100C2997599182099F880FB77
:03009B000221BB84
:0A21BB00C2997599192099F880FB6C
:0300A3000221C572
:0A21C500C2997599202099F880FB5B
:0300AB000221CF60
:0A21CF00C2997599212099F880FB50
:0300B3000221D94E
:0A21D900C2997599222099F880FB45
:0300BB000221E33C
:0A21E300C2997599232099F880FB3A
:101BC400E4F5A8758CFE758ACD758921D28CD2A9CD
:101BD400122019C2B8D2B9F5B575930CF594759164
:101BE400FFF592759DFFF595F596F5B175B2FCF587
:101BF400B3F5B4F5C975CA03F5E1F5E2F52CC208ED
:101C0400C207C200C201C205D2B3C2B290001DF025
:101C1400A3F09000AFF0A304F0C202C203C204E434
:101C2400F524F543F544F545F528F5267530FFF51B
:101C34003EF53FF536F537C209C20A1200BED2AFEF
:0B1C4400C2B4121C550000000080F527
:1011690074F8CC6480CCC86480C8F582046043C339
:10117900EB9FF5F0EA9E42F0E99D42F0E89C45F0CC
:1011890060305018E5825FFFE582F42B5582FB50F1
:10119900210ABA001D09B90019088016E5825BFB0E
:1011A900E582F42F5582FF50090EBE00050DBD00E2
:1011B900010CC3EB9FF5F0EA9E42F0E99D42F0E88D
:0D11C9009C45F06007CC4820E701B3EC2204
:1011D60075F020800E75F010800575F0087D007E94
:1011E600007F003392D530D50312143FEC33401004
:1011F600EF33FFEE33FEED33FDEC33FCD5F0ED229D
:0E120600E5F0247EA2D513CC92E7CDCEFF22D8
:03000000021B38A8
:0C1B3800787FE4F6D8FD758160021B7F09
:10121400E709F608DFFA8046E709F208DFFA803EBC
:1012240088828C83E709F0A3DFFA8032E309F608A9
:10123400DFFA8078E309F208DFFA807088828C8311
:10124400E309F0A3DFFA806489828A83E0A3F608C5
:10125400DFFA805889828A83E0A3F208DFFA804C9F
:1012640080D280FA80C680D4806980F28033801076
:1012740080A680EA809A80A880DA80E280CA8033DF
:1012840089828A83ECFAE493A3C8C582C8CCC58357
:10129400CCF0A3C8C582C8CCC583CCDFE9DEE78027
:1012A4000D89828A83E493A3F608DFF9ECFAA9F0A6
:1012B400EDFB2289828A83ECFAE0A3C8C582C8CCFC
:1012C400C583CCF0A3C8C582C8CCC583CCDFEADE15
:1012D400E880DB89828A83E493A3F208DFF980CC77
:1012E40088F0EF60010E4E60C388F0ED2402B40470
:1012F4000050B9F582EB2402B4040050AF23234517
:06130400822390126473C5
:10130A00EF8DF0A4A8F0CF8CF0A428CE8DF0A42EF7
:02131A00FE22B1
:10131C00BC000BBE0029EF8DF084FFADF022E4CCB5
:10132C00F875F008EF2FFFEE33FEEC33FCEE9DEC7E
:10133C00984005FCEE9DFE0FD5F0E9E4CEFD22EDC4
:10134C00F8F5F0EE8420D21CFEADF075F008EF2F0E
:10135C00FFED33FD4007985006D5F0F222C398FDFF
:05136C000FD5F0EA229C
:1013710075F008758200EF2FFFEE33FECD33CDCC33
:1013810033CCC58233C5829BED9AEC99E5829840B6
:101391000CF582EE9BFEED9AFDEC99FC0FD5F0D693
:1013A100E4CEFBE4CDFAE4CCF9A88222B800C1B9BD
:1013B1000059BA002DEC8BF084CFCECDFCE5F0CBFB
:1013C100F97818EF2FFFEE33FEED33FDEC33FCEB34
:1013D10033FB10D703994004EB99FB0FD8E5E4F9EF
:1013E100FA227818EF2FFFEE33FEED33FDEC33FCDC
:1013F100C933C910D7059BE99A4007EC9BFCE99AD0
:10140100F90FD8E0E4C9FAE4CCFB2275F010EF2F14
:10141100FFEE33FEED33FDCC33CCC833C810D70714
:101421009BEC9AE899400AED9BFDEC9AFCE899F84F
:0E1431000FD5F0DAE4CDFBE4CCFAE4C8F922E2
:0E143F00C3E49FFFE49EFEE49DFDE49CFC22BE
:10144D00EB9FF5F0EA9E42F0E99D42F0EC6480C816
:06145D0064809845F022B6
:10146300EB9FF5F0EA9E42F0E99D42F0E89C45F0DF
:011473002256
:0C147400ECF0A3EDF0A3EEF0A3EFF022EB
:101B4400021BC4E493A3F8E493A34003F68001F2D8
:101B540008DFF48029E493A3F85407240CC8C333A2
:101B6400C4540F4420C8834004F456800146F6DF71
:101B7400E4800B0102040810204080901762E47E88
:101B8400019360BCA3FF543F30E509541FFEE49366
:101B9400A360010ECF54C025E060A840B8E493A32D
:101BA400FAE493A3F8E493A3C8C582C8CAC583CA58
:101BB400F0A3C8C582C8CAC583CADFE9DEE780BE10
:011852000095
:00000001FF
