:101E5E003F065B4F666D7D077F6F777C395E7971CC
:101E6E0076743854635C7367503E40231C00004602
:101E7E00FC60DAF266B6BEE0FEF6EE3E9C7A9E8E10
:101E8E006E2E1C2AC63ACEE60A7C02C4380000002A
:101762005400000000000000000000000000000023
:101772000000000000000042001D00004400B40010
:101782000000004200AF00004200C0000002290039
:1017920000014001014101012E00013300012B0033
:1017A20042001400006080002F00000000000000D2
:1017B2000000000000000000000000000000000027
:1017C2000000000000000000000000000000000017
:1017D2000000000000000000000000000000000007
:1017E20000000000000000000000000000000000F7
:1017F20000000000000000000000000000000000E7
:1018020000000000000000000000000000000000D6
:1018120000000000000000000000000000000000C6
:101822000000000000000000004800B800000000B6
:101832000000000050001F00000000000000000037
:1018420000000000000000012D00013B00013100FA
:101F0B00C2A3C2A17F047E00121F1CD2A37F047E3A
:011F1B0000C5
:101F1C00EF1FAC0670011E4C6014000000000000A6
:0F1F2C0000000000000000000000000080E22222
:051DD400A3E0FD7C000E
:061DD900AB05AA04A907F6
:101DDF00121F0B7D08C2A18960E5601392A27F01DB
:101DEF007E00121F1CE9C313F9D2A1DDE87D08C2E2
:101DFF00A18B60E5601392A27F017E00121F1CEA87
:0D1E0F00A2E713FAEB13FBD2A1DDE4C2A39E
:011E1C0022A3
:021E1D00A90713
:101E1F008D61AB01121F0B7A08C2A1EB1392A27F47
:101E2F00017E00121F1CEBC313FBD2A1DAEB7A0861
:101E3F00D2A1EDC313FDC2A17F017E00121F1C3082
:0E1E4F00A203430580DAE9C2A3EDB561C3FF2B
:011E5D002262
:101D8800E4FDFC7F8E121DD9900016E0FD7C007FDB
:101D98008C121DD97F88121DD47F86121DD4A3E012
:101DA800FD7C007F84121DD9A3E0FD7C007F821298
:101DB8001DD9E4FDFC7F80121DD97DAA7C007F908F
:0C1DC800121DD97D807C007F8E021DD989
:0D20D600E4F5C7F5C5F5C675C380F5C42255
:071FDF00FFE43EFEA3E0FD5C
:101FE60075C78275C502AB078BC48EC3C374FF9DCC
:0C1FF600F5C275C65A75C6A5000220D6BB
:101CBB00E54C7F0025E0FE121D1E900016EFF0E5AF
:101CCB004C25E0FEE42401FFE43EFE121D1EA3EFB3
:101CDB00F0E54C25E0FEE42402FFE43EFE121D1E5F
:101CEB00A3EFF0E54C25E0FEE42403FFE43EFE12F7
:101CFB001D1EA3EFF0E54C25E0FEE42404FFE43EBB
:101D0B00FE121D1EA3EFF0E54C25E0FEE42405FFBB
:031D1B00E43EFEA5
:101D1E0075C78275C501AD078DC48EC375C65A755C
:0C1D2E00C6A500C374FF95C2FF1220D6AA
:011D3A002286
:07203F00E54C7F0025E0FEE7
:1020460075C78275C503AD078DC48EC375C65A752F
:06205600C6A5000220D621
:101D3B00C298E55025E0F54F859950E550624F85E7
:081D4B004F5DAD52AC51AF4FEA
:101D53008C608D61EF6261E4FDE56130E013E56065
:101D6300C313F560E56113F5616360A063610180EE
:101D73000BE560C313F560E56113F5610DBD08D98B
:041D8300AE60AF613E
:011D87002239
:061C3800D2B2C2B6C2A543
:101C3E00309879C298859960E560B4E90CE52DB4C9
:101C4E00E90405318003E4F531E560B4ED0CE52DD2
:101C5E00B4ED0405318003E4F531E53B64EB703CF3
:101C6E00E52DD394205018C299E52DFE7C00E42575
:101C7E0060FFEC3EFE121D1E8F9920991F80FBE522
:101C8E002DC394804016E52DD39490500F432D0113
:101C9E00C299AF2D121E1D8F993099FD852D3B8552
:0C1CAE00602DE531D3940A400375C72077
:011CBA002207
:1000BE00E4F55890002093F559A3E493F55AA3E480
:1000CE0093F55BE4F55CF553D20CD2AFC298C20641
:1000DE00F54BF54CC3E54C94C8E54B940040030238
:1000EE0004E530060A054CE54C7002054BC206309D
:1000FE0098E2C29885994FE54F64ED60030202F9CC
:10010E00E54FB4ED12C2997599AA3098FDC2988543
:10011E00995085504F80E974FFF551F552121D4DDF
:10012E008E518F52E4F54BF54C3098FDC298E55048
:10013E0025E0F54F859950E550624F854F5F121DB2
:10014E004D8E518F523098FDC298E55025E0F54FF7
:10015E00859950E550624F854F5E121D4D8E518F21
:10016E00523098FD121D3B8E518F52054CE54C704E
:10017E0002054BC39403E54B940040ADAF5FAE5EFA
:10018E00AD5DAC5C8F578E568D558C54E4F54BF5AA
:10019E004C3098FD121D3B8E518F523098FDC298F7
:1001AE00E55025E0F54F859950E550624F854F5E3D
:1001BE00121D4D8E518F523098FDC298E55025E09C
:1001CE00F54F859950E550624F854F5F121D4D8E4C
:1001DE00518F52AF5BAE5AAD59AC58AB5FAA5EA908
:1001EE005DA85CC31214637003755301054CE54C96
:1001FE007002054BC394E8E54B940340943098FD90
:10020E00121D3B8E518F523098FD121D3B8E518F19
:10021E0052E552455160030202D1E5536401600379
:10022E000202CC754F55F54BF54CE4F553E5537082
:10023E007712203FE54C25E0FEAD55121FE6E54C4A
:10024E0025E0FEEF2401FFE43EFEAD56121FE6E56B
:10025E004C25E0FEE42402FFE43EFEAD57121FE6FD
:10026E00E54C25E0FEE42401121D1AEFB556047C80
:10027E000180027C00E54C7F0025E0FE121D1EEF82
:10028E00B555047F0180027F00EF5CFCE54C25E054
:10029E00FEE42402121D1AEFB557047F0180027F7F
:1002AE0000EF5CF55302023B054CE54C7002054B2A
:1002BE00C39403E54B940050030202388008754F37
:1002CE00E18003754FEEE4F54BF54CC3E54C940518
:1002DE00E54B940040030200E2C299854F99309994
:1002EE00FD054CE54C70E4054B80E0E54F64E9609C
:1002FE00030200E2E54FB4E912C2997599A5309850
:10030E00FDC29885995085504F80E974FFF551F5DF
:10031E0052121D4D8E518F523098FDC298E55025C8
:10032E00E0F54F859950E550624F854F5F121D4D98
:10033E008E518F523098FDC298E55025E0F54F85CD
:10034E009950E550624F854F5E121D4D8E518F5262
:10035E003098FD121D3B8E518F52AF5FAE5EAD5D7C
:10036E00AC5C8F578E568D558C543098FDC298E5E7
:10037E005025E0F54F859950E550624F854F5F123D
:10038E001D4D8E518F523098FDC298E55025E0F5E7
:10039E004F859950E550624F854F5E121D4D8E511F
:1003AE008F523098FD121D3B8E518F523098FDC2E8
:1003BE0098E55025E0F54F859950E550624F121D96
:1003CE004D8E518F523098FDC298E55025E0F54F75
:1003DE00859950E550624F121D4D8E518F52E55248
:1003EE00455160030204BDF553E55360030204A8B2
:1003FE00FDFC7F8E121DD9AF57EFFD7C007F801262
:10040E001DD9AF56EFFD7C007F82121DD9AF55EF7F
:10041E00FD7C007F84121DD9AF5FAE5EAD5DAC5C1E
:10042E008F578E568D558C54AF57EFFD7C007F86BF
:10043E00121DD9AF56EFFD7C007F88121DD9AF5526
:10044E00EFFD7C007F8C121DD97DAA7C007F90125F
:10045E001DD97D807C007F8E121DD97F89121E1DB5
:10046E00EFB556067F01C00780047F00C0077F8767
:10047E00121E1DEFB557047E0180027E00D0E05E95
:10048E00FFC0077F8D121E1DEFB555047E01800241
:10049E007E00D0E05EF5530203F77F007E1012203F
:1004AE0046E4FD121FE6D2A5D2B6754F55800375F0
:1004BE004FEEE4F54BF54CC3E54C9405E54B94003B
:1004CE0040030200E2C299854F993099FD054CE533
:1004DE004C70E4054B80E07F8F121E1D8F4FE54F51
:1004EE00547F70F37F81121E1D8F4FE54F20E7035F
:1004FE000209D2E4F550F553F54B754C04F54D75E4
:10050E004E05E54E25E0FEE42401121D1AAC07E56A
:10051E004C25E0FEE42401121D1AEFB504047C0103
:10052E0080027C00E54E7F0025E0FE121D1EAB070B
:10053E00E54C7F0025E0FE121D1EEFB503047F0182
:10054E0080027F00EF5CFCE54E25E0FEE424021203
:10055E001D1AAB07E54C25E0FEE42402121D1AEF2E
:10056E00B503047F0180027F00EF5CFCE54E25E0C1
:10057E00FEE42403121D1AAB07E54C25E0FEE4242D
:10058E0003121D1AEFB503047F0180027F00EF5C9A
:10059E00FCE54E25E0FEE42404121D1AAB07E54CE3
:1005AE0025E0FEE42404121D1AEFB503047F01803A
:1005BE00027F00EF5CFCE54E121D14AB07121D12FC
:1005CE00EFB503047F0180027F00EF5CFFE55370FF
:1005DE00047E0180027E00EE5F6009121CBBA3EF59
:1005EE00F0755301754B00754C04754D00754E0634
:1005FE00E54E25E0FEE42401121D1AAC07E54C255C
:10060E00E0FEE42401121D1AEFB504047C01800201
:10061E007C00E54E7F0025E0FE121D1EAB07E54C6B
:10062E007F0025E0FE121D1EEFB503047F01800240
:10063E007F00EF5CFCE54E25E0FEE42402121D1A5D
:10064E00AB07E54C25E0FEE42402121D1AEFB503BC
:10065E00047F0180027F00EF5CFCE54E25E0FEE4A6
:10066E002403121D1AAB07E54C25E0FEE424031209
:10067E001D1AEFB503047F0180027F00EF5CFCE5DD
:10068E004E25E0FEE42404121D1AAB07E54C25E0CE
:10069E00FEE42404121D1AEFB503047F0180027FCD
:1006AE0000EF5CFCE54E121D14AB07121D12EFB5E8
:1006BE0003047F0180027F00EF5CFFE55370047E30
:1006CE000180027E00EE5F6009121CBBA3EFF07585
:1006DE005301754B00754C05754D00754E06E54E74
:1006EE0025E0FEE42401121D1AAC07E54C25E0FEC0
:1006FE00E42401121D1AEFB504047C0180027C0073
:10070E00E54E7F0025E0FE121D1EAB07E54C7F0077
:10071E0025E0FE121D1EEFB503047F0180027F004F
:10072E00EF5CFCE54E25E0FEE42402121D1AAB0739
:10073E00E54C25E0FEE42402121D1AEFB503047FFA
:10074E000180027F00EF5CFCE54E25E0FEE4240311
:10075E00121D1AAB07E54C25E0FEE42403121D1A08
:10076E00EFB503047F0180027F00EF5CFCE54E25B0
:10077E00E0FEE42404121D1AAB07E54C25E0FEE46E
:10078E002404121D1AEFB503047F0180027F00EFCF
:10079E005CFCE54E121D14AB07121D12EFB50304DF
:1007AE007F0180027F00EF5CFFE55370047E0180C5
:1007BE00027E00EE5F6009121CBBA3EFF0755301C1
:1007CE00900016E0754B00F54C754D00E54C540F3E
:1007DE00F54EE54BC4F854F0C868F54BE54CC454DF
:1007EE000F48F54CAE4BFF7C007D0A12130AE54E06
:1007FE002FF54CE54D3EF54BD3E54C9463E54B940C
:10080E00004003E4F553900017E0754B00F54C756E
:10081E004D00E54C540FF54EE54BC4F854F0C86846
:10082E00F54BE54CC4540F48F54CAE4BFF7C007DA8
:10083E000A12130AE54E2FF54CE54D3EF54B454C8D
:10084E0070047F0180027F00D3E54C940CE54B943D
:10085E000040047E0180027E00EE4F6003E4F553FB
:10086E00900018E0754B00F54C754D00E54C540F9B
:10087E00F54EE54BC4F854F0C868F54BE54CC4543E
:10088E000F48F54CAE4BFF7C007D0A12130AE54E65
:10089E002FF54CE54D3EF54B454C70047F01800223
:1008AE007F00D3E54C941FE54B940040047E0180FD
:1008BE00027E00EE4F6003E4F5537F007E10121DA2
:1008CE001E754B008F4CD3E54C940AE54B940040BB
:1008DE0009E4F553C2A5C2B680127F007E10122025
:1008EE0046E54C04FD121FE6D2A5D2B6E5536006CE
:1008FE00121D880209D2121C383006FD054CE54C3B
:10090E007002054BC206AE4BFFE4FCFD7B507AC372
:10091E00F9F8C312144D5005E4F54BF54CAE4BAF40
:10092E004C7C007D6412131C8D4FE54FB4010912EF
:10093E001E9E539AFD852C9BAE4BAF4C7C277D1093
:10094E0012131C8F4F752F07E54FB4021C90002019
:10095E00E493F550E54F24FE9000B1F0E550C454F9
:10096E000FA3F0E550540FA3F0E54FB4031C900015
:10097E0021E493F550E54F24FE9000B1F0E550C40C
:10098E00540FA3F0E550540FA3F0E54FB4041C90A0
:10099E000022E493F550E54F24FE9000B1F0E550AF
:1009AE00C4540FA3F0E550540FA3F0E54FC39402C7
:1009BE0040030209049000B1740AF0E4A3F0A3040A
:1009CE00F00209047F91121E1D8F4FE54F64AA702D
:1009DE0003020AB4E4F550121C383006FD054CE54E
:1009EE004C7002054BC206AE4BFFE4FCFD7B507A09
:1009FE00C3F9F8C312144D5005E4F54BF54CAE4B4C
:100A0E00AF4C7C007D6412131C8D4FE54FB4010971
:100A1E00121E9E539AFD852C9BAE4BAF4C7C277DB0
:100A2E001012131C8F4F752F07E54FB4021C900048
:100A3E0020E493F550E54F24FE9000B1F0E550C44C
:100A4E00540FA3F0E550540FA3F0E54FB4031C90E0
:100A5E000021E493F550E54F24FE9000B1F0E550EF
:100A6E00C4540FA3F0E550540FA3F0E54FB4041C8B
:100A7E00900022E493F550E54F24FE9000B1F0E58E
:100A8E0050C4540FA3F0E550540FA3F0E54FC39498
:100A9E000240030209E59000B1740AF0E4A3F0A34A
:100AAE007403F00209E5E4F55490800093F4F555D3
:100ABE00A3E493F4F556A3E493F4F557E4F55890B4
:100ACE00820093F4F559A3E493F4F55AA3E493F456
:100ADE00F55BAF5BAE5AAD59AC58AB57AA56A9559C
:100AEE00A854C31214637003020B8078547C007DEB
:100AFE00007B007A0079587E007F041212E4E4F540
:100B0E005890840093F4F559A3E493F4F55AA3E4B2
:100B1E0093F4F55BAF5BAE5AAD59AC58AB57AA56D2
:100B2E00A955A854C3121463604878547C007D0004
:100B3E007B007A0079587E007F041212E4E4F558A7
:100B4E0090800093F4F559A3E493F4F55AA3E4933B
:100B5E00F4F55BAF5BAE5AAD59AC58AB57AA56A97C
:100B6E0055A854C31214636009E4F557F556F555AC
:100B7E00F554E4F55C7F8D121E1D8F5D7F89121E6C
:100B8E001D8F5E7F87121E1D8F5FAF57AE56AD5500
:100B9E00AC54AB5FAA5EA95DA85CD312146350037C
:100BAE00020C83121C383006FD054CE54C70020514
:100BBE004BC206AE4BFFE4FCFD7B507AC3F9F8C383
:100BCE0012144D5005E4F54BF54CAE4BAF4C7C007A
:100BDE007D6412131C8D4FE54FB4010C752C211240
:100BEE001EA1539AFD852C9BAE4BAF4C7C277D10DE
:100BFE0012131C8F4F752F07E54FB4021C90002067
:100C0E00E493F550E54F24FE9000B1F0E550C45446
:100C1E000FA3F0E550540FA3F0E54FB4031C900062
:100C2E0021E493F550E54F24FE9000B1F0E550C459
:100C3E00540FA3F0E550540FA3F0E54FB4041C90ED
:100C4E000022E493F550E54F24FE9000B1F0E550FC
:100C5E00C4540FA3F0E550540FA3F0E54FC3940214
:100C6E004003020BB19000B1740AF0E4A3F0A37438
:100C7E0002F0020BB17F8D121E1D900016EFF07F59
:100C8E0089121E1DA3EFF07F87121E1DA3EFF07FAA
:100C9E0085121E1DA3EFF07F83121E1DA3EFF07FA2
:100CAE0081121E1DA3EFF0754B00754C04E4F55335
:100CBE00E5536003020DA612203FE54C25E0FE90A1
:100CCE000016E0FD121FE6E54C25E0FEEF240112B2
:100CDE001FDFE54C25E0FEE42402121FDFE54C2564
:100CEE00E0FEE42403121FDFE54C25E0FEE42404BD
:100CFE00121FDFE54C25E0FEE42405121FDFE54C54
:100D0E0025E0FEE42401121D1A900017E0B5070439
:100D1E007C0180027C00E54C7F0025E0FE121D1E4A
:100D2E00900016E0B507047F0180027F00EF5CFCA7
:100D3E00E54C25E0FEE42402121D1A900018E0B5E1
:100D4E0007047F0180027F00EF5CFCE54C25E0FE8E
:100D5E00E42403121D1A900019E0B507047F0180E8
:100D6E00027F00EF5CFCE54C25E0FEE42404121D3E
:100D7E001A90001AE0B507047F0180027F00EF5C35
:100D8E00FC121D1290001BE0B507047F0180027F4C
:100D9E0000EF5CF553020CBE054CE54C7002054BA2
:0E0DAE00C39406E54B94005003020CBBC20C2C
:010DBC002214
:10202100EF1392C3EFA2E192C2A2E292FBA2E3926A
:0E203100FAA2E492F9A2E592C1A2E692F82288
:101ED800E52F24FD600D04700F900021E4937E002F
:101EE800FF800D9000228003900020E493FF7E0085
:101EF800EF540FF548EEC4F854F0C8EFC4540F4837
:021F0800F54999
:011F0A0022B4
:101613001538E538702F753864D390001EE0943B7D
:1016230090001DE09402500FE53925E0543FF53951
:101633007010753901800BE539C313F539700375E3
:10164300392085394A90001DE0FEA3E0FFD3943B87
:10165300EE9402505AC3743B9FFB74029EFAD3EB81
:1016630094C7EA94004002805D7C007D0AAF03AE1C
:101673000212131C8D487C007D0AAF03AE021213C5
:101683001CAA06AB077C007D0A12131C8D497C0043
:101693007D0AAF03AE0212131C7C007D0A12131CD9
:1016A300745E2DF582741E3CF583E493F54A229013
:1016B300001EE024C5FB90001DE034FDFAD3EB943B
:1016C300C7EA940040307C007D0AAF03AE021213D8
:1016D3001C8D487C007D0AAF03AE0212131CAA06C0
:1016E300AB077C007D0A12131C8D497C007D0AAF79
:1016F30003AE0202131CD3EB9463EA94007C007DD7
:101703000AAF03AE02402C12131C8D487C007D0AE5
:10171300AF03AE0212131CAA06AB077C007D0A12AC
:10172300131C8D497C007D0AAF03AE0212131C7596
:101733004A462212131C8D487C007D0AAF03AE0279
:1017430012131CAA06AB077C007D0A12131C8D49D9
:0E1753007C007D0AAF03AE0212131C754A40E3
:011761002265
:101F3B00E52C541FFB7C007D0AFF7E0012131C8DC9
:101F4B00487C007D0AAF037E0012131C7C007D0AC7
:0F1F5B0012131C8D49E52CC41354075403F54A87
:011F6A002254
:0D20C800E54A540FF548E54AC4540FF549A8
:0120D50022E8
:0100060022D7
:0100070022D6
:101F9300E52F24FC601014601014601014601024EA
:101FA30004700F021ED8021613021F3B0220C80240
:061FB300000612000722E7
:10207900EF700475BCE322BF010475BCE422BF0202
:0C2089000475BCE522BF030375BCE22215
:10205C00E4FFFEE4FDFC0DBD00010CBC01F8BDF479
:0C206C00F50FBF00010EEF64644E70E73A
:012078002245
:0100080022D5
:101FB900E4F5BDF5BE43972075BCEA0000000000BA
:101FC9000000000000E5BC30E4FB53BCEFAFBDEFFF
:051FD900FEADBEEDFFAE
:011FDE0022E0
:1014800020CA0E900001E0C394C85011E004F0801F
:101490000C900001E0D394004003E014F020840E8F
:1014A000900002E0C394C85011E004F0800C90005A
:1014B00002E0D394004003E014F020830E90000378
:1014C000E0C394C85011E004F0800C900003E0D316
:1014D00094004003E014F020A70E900007E0C394AE
:1014E000C85011E004F0800C900007E0D394004055
:1014F00003E014F020FC0E900008E0C394C85011E3
:10150000E004F0800C900008E0D394004003E01465
:10151000F020FD0E900009E0C394C85011E004F0E3
:10152000800C900009E0D394004003E014F0208385
:1015300018E4F529F52A752E01D20B90000AE0C3B4
:1015400094C85011E004F0800C90000AE0D394009D
:101550004003E014F020FF0E90000BE0C394C8504D
:1015600011E004F0800C90000BE0D394004003E005
:1015700014F020C50E90000CE0C394C85011E00494
:10158000F0800C90000CE0D394004003E014F020B5
:10159000C60E90000DE0C394C85011E004F0800C1A
:1015A00090000DE0D394004003E014F020821EA2CE
:1015B00082E433F541E4F529F52A752E01D20B902A
:1015C000000EE0C394C85011E004F0800C90000EAF
:1015D000E0D394004003E014F020810E90000FE06F
:1015E000C394C85011E004F0800C90000FE0D39435
:1015F000004003E014F020820D900010E0C394C876
:101600005010E004F022900010E0D394004003E07A
:0316100014F022B1
:10192C0085430885440A8545093000030219CFE533
:10193C0009C3942850047F0180027F00E508C394FA
:10194C002850047E0180027E00EE5FFFE50AC394FE
:10195C002850047E0180027E00EE5F6066E508C3BD
:10196C0095095030E50A950840047F0180027F00FC
:10197C00E50AC3950950047E0180027E00EE5F608B
:10198C0008E524603E1524803AE524C394C85033FE
:10199C000524802FE50AD3950840047F0180027F3F
:1019AC0000E50AC3950950047E0180027E00EE4FCB
:1019BC006008E524600D15248009E524C394C85003
:1019CC00020524E524D394644008752496752C678D
:0419DC00D200A20093
:0119E00022E4
:100DBD00E530D3949B400302103F9000BAE0FCA3B2
:100DCD00E0FDE41211DB7B7C7AEF790D7842121194
:100DDD0069600840067F01C00780047F00C007904E
:100DED0000B8E0FCA3E0FDE41211DB7B7C7AEF7927
:100DFD000D7842121169600640047E0180027E006A
:100E0D00D0E05EFFC0079000BCE0FCA3E0FDE41263
:100E1D0011DB7B7C7AEF790D784212116960064007
:100E2D00047E0180027E00D0E05EFFC0079000BE10
:100E3D00E0FCA3E0FDE41211DB7B7C7AEF790D7809
:100E4D0042121169600640047E0180027E00D0E0EE
:100E5D005E600302103F300E709000BAE0FCA3E01C
:100E6D00FDE41211DB7B3A7AE779D47842121169ED
:100E7D0050067F01C00780047F00C0079000B8E0D6
:100E8D00FCA3E0FDE41211DB7B3A7AE779D47842DA
:100E9D0012116950047E0180027E00D0E05EFFC019
:100EAD00079000BCE0FCA3E0FDE41211DB7B3A7A75
:100EBD00E779D4784212116950047E0180027E00D8
:100ECD00D0E05E6076C20E807B9000BAE0FCA3E0BD
:100EDD00FDE41211DB7B3A7AE779D478421211697D
:100EED00600840067F01C00780047F00C0079000A6
:100EFD00B8E0FCA3E0FDE41211DB7B3A7AE779D48C
:100F0D007842121169600640047E0180027E00D095
:100F1D00E04EFFC0079000BCE0FCA3E0FDE4121121
:100F2D00DB7B3A7AE779D478421211696006400486
:100F3D007E0180027E00D0E04E6007D20E752C75CA
:100F4D008002C20E300D769000BAE0FCA3E0FDE405
:100F5D001211DB7B7C7AEF790D78431211696008F1
:100F6D0040067F01C00780047F00C0079000B8E0F5
:100F7D00FCA3E0FDE41211DB7B7C7AEF790D784365
:100F8D00121169600640047E0180027E00D0E05E91
:100F9D00FFC0079000BCE0FCA3E0FDE41211DB7B79
:100FAD007C7AEF790D7843121169600640047E0159
:100FBD0080027E00D0E05E6070C20D80759000BA38
:100FCD00E0FCA3E0FDE41211DB7B7C7AEF790D7878
:100FDD004312116950067F01C00780047F00C007CE
:100FED009000B8E0FCA3E0FDE41211DB7B7C7AEF0E
:100FFD00790D784312116950047E0180027E00D074
:10100D00E04EFFC0079000BCE0FCA3E0FDE4121130
:10101D00DB7B7C7AEF790D784312116950047E01E8
:10102D0080027E00D0E04E6007D20D752C748002D8
:10103D00C20DE53AD394014004C20DC20E9000BA20
:10104D00E0FCA3E0FDE41211DB7B7C7AEF790D78F7
:10105D0042121169600840067F01C00780047F00BD
:10106D00C0079000B8E0FCA3E0FDE41211DB7B7C2F
:10107D007AEF790D7842121169600640047E018085
:10108D00027E00D0E04EFFC0079000BCE0FCA3E064
:10109D00FDE41211DB7B7C7AEF790D784212116938
:1010AD00600640047E0180027E00D0E04EFFC00746
:1010BD009000BEE0FCA3E0FDE41211DB7B7C7AEF37
:1010CD00790D7842121169600640047E0180027E1E
:1010DD0000D0E04EFFC0079000BAE0FCA3E0FDE4B5
:1010ED001211DB7B3A7AE779D478421211695006F6
:1010FD007F01C00780047F00C0079000B8E0FCA30B
:10110D00E0FDE41211DB7B3A7AE779D478421211D3
:10111D006950047E0180027E00D0E04EFFC0079032
:10112D0000BCE0FCA3E0FDE41211DB7B3A7AE77929
:10113D00D4784212116950047E0180027E00D0E005
:10114D004EFED0E05E6007D201752C688002C201B0
:0C115D0012192CA20E720D7201720022F9
:1019E100D39000B0E094F49000AFE094014034E073
:1019F100FEA3E0FBAA06E4F9F89000B4E0FCA3E042
:101A0100FDA3E0FEA3E0FF1213AD90001DEEF0A3D5
:101A1100EFF0E4FCFD9000B41214749000AFE4F018
:101A2100A304F0C390001EE0944090001DE09402D6
:101A31004035200B32E52E702E200B26E52E700B43
:101A4100C2A4C2B5752C6AD2078004D2A4D2B5E56E
:101A51002B700AC2A4C2B5752C6AD20722E4F52BF9
:101A61008000D2A4D2B522C20BC207D2A4D2B5053E
:101A71002AE52A70020529AE29FFE4FCFD7B507A94
:0C1A8100C3F9F8C312144D5003E4F52E15
:011A8D002236
:101A8E00D210C20B900000E0C394325003752C218B
:101A9E00900001E0C394325003752C21900002E0B7
:101AAE00C394325005752C238066900003E0C394D6
:101ABE00325005752C228058900004E0C3943250A9
:101ACE0005752C21804A900005E0C39432500575AF
:101ADE002C31803C900006E0C394325005752C30BA
:101AEE00802E900007E0C394325005752C64802040
:101AFE00900008E0C394325005752C72801290004D
:101B0E0009E0C394325005752C698004C210D20BC3
:021B1E00A21013
:011B200022A2
:10209500D21190000AE0D394004009D205752C02B4
:0A20A500D20B8004C211C20BA2117D
:0120AF00220E
:1020B000D21290000EE0D394964006D205D20B8047
:0720C00004C212C20BA212C0
:0120C70022F6
:0D20E300C20B300504752C0122E4F52C22FF
:101F6B00E530D394EB4014300005C2B27530FF90CE
:101F7B00000EE0D39496400FC2B322A200720772F8
:081F8B0001720A92B2C2B322F6
:031E9E00752C217F
:101EA100E4FFE52C30E0010FE52C30E1010FE52CDA
:101EB10030E2010FE52C30E3010FE52C30E4010F96
:101EC100E52C30E5010FE52C30E6010FEF30E0069F
:061ED1007480252CF52CA5
:011ED70022E8
:10200200758DFB758BFB75985875D6FF75D7107556
:0F2012009A5875AC98758498758E14438E012278
:03000B0002185385
:10185300C0E0C0F0C083C082C0D075D000C000C05B
:0D18630001C002C003C004C005C006C007DC
:10187000758CFE758ACD75C13E9000C1E004F07094
:10188000069000C0E004F0D39000C1E0940F9000F7
:10189000C0E09427400FE52F94045002052F9000DC
:1018A000C0E4F0A3F0300503752F05300C07121FBC
:1018B00093D206805CE546703C9000B4E0F8A3E06B
:1018C000F9A3E0FAA3E0FB900035E0FEA3E0FFE41B
:1018D000FCFDEB2FFFEA3EFEED39FDEC38FC9000FD
:1018E000B41214749000B0E004F070069000AFE001
:1018F00004F01219E1121FB9E54625E0242FF58204
:10190000E43400F583EEF0A3EFF0E546045403F56C
:011910004690
:10191100D007D006D005D004D003D002D001D0002A
:0B192100D0D0D082D083D0F0D0E032D4
:030003000220F0E8
:0A20F000C2997599002099F880FB51
:030013000220FACE
:0A20FA00C2997599022099F880FB45
:03001B00022104BB
:0A210400C2997599032099F880FB39
:0300230002210EA9
:0A210E00C2997599042099F880FB2E
:03002B0002211897
:0A211800C2997599052099F880FB23
:0300330002212285
:0A212200C2997599062099F880FB18
:03003B0002212C73
:0A212C00C2997599072099F880FB0D
:0300430002213661
:0A213600C2997599082099F880FB02
:03004B000221404F
:0A214000C2997599092099F880FBF7
:0300530002214A3D
:0A214A00C2997599102099F880FBE6
:03005B000221542B
:0A215400C2997599112099F880FBDB
:0300630002215E19
:0A215E00C2997599122099F880FBD0
:03006B0002216807
:0A216800C2997599132099F880FBC5
:03007300022172F5
:0A217200C2997599142099F880FBBA
:03007B0002217CE3
:0A217C00C2997599152099F880FBAF
:03008300022186D1
:0A218600C2997599162099F880FBA4
:03008B00022190BF
:0A219000C2997599172099F880FB99
:0300930002219AAD
:0A219A00C2997599182099F880FB8E
:03009B000221A49B
:0A21A400C2997599192099F880FB83
:0300A3000221AE89
:0A21AE00C2997599202099F880FB72
:0300AB000221B877
:0A21B800C2997599212099F880FB67
:0300B3000221C265
:0A21C200C2997599222099F880FB5C
:0300BB000221CC53
:0A21CC00C2997599232099F880FB51
:101BAD00E4F5A8758CFE758ACD758921D28CD2A9E4
:101BBD00122002C2B8D2B9F5B575930CF594759192
:101BCD00FFF592759DFFF595F596F5B175B2FCF59E
:101BDD00B3F5B4F5C975CA03F5E1F5E2F52CC20804
:101BED00C207C200C201C205D2B3C2B290001DF03D
:101BFD00A3F09000AFF0A304F0C202C203C204E44C
:101C0D00F524F543F544F545F528F5267530FFF532
:101C1D003EF53FF536F537C209C20A1200BED2AF06
:0B1C2D00C2B4121C3E0000000080F555
:1011690074F8CC6480CCC86480C8F582046043C339
:10117900EB9FF5F0EA9E42F0E99D42F0E89C45F0CC
:1011890060305018E5825FFFE582F42B5582FB50F1
:10119900210ABA001D09B90019088016E5825BFB0E
:1011A900E582F42F5582FF50090EBE00050DBD00E2
:1011B900010CC3EB9FF5F0EA9E42F0E99D42F0E88D
:0D11C9009C45F06007CC4820E701B3EC2204
:1011D60075F020800E75F010800575F0087D007E94
:1011E600007F003392D530D50312143FEC33401004
:1011F600EF33FFEE33FEED33FDEC33FCD5F0ED229D
:0E120600E5F0247EA2D513CC92E7CDCEFF22D8
:03000000021B21BF
:0C1B2100787FE4F6D8FD758161021B6836
:10121400E709F608DFFA8046E709F208DFFA803EBC
:1012240088828C83E709F0A3DFFA8032E309F608A9
:10123400DFFA8078E309F208DFFA807088828C8311
:10124400E309F0A3DFFA806489828A83E0A3F608C5
:10125400DFFA805889828A83E0A3F208DFFA804C9F
:1012640080D280FA80C680D4806980F28033801076
:1012740080A680EA809A80A880DA80E280CA8033DF
:1012840089828A83ECFAE493A3C8C582C8CCC58357
:10129400CCF0A3C8C582C8CCC583CCDFE9DEE78027
:1012A4000D89828A83E493A3F608DFF9ECFAA9F0A6
:1012B400EDFB2289828A83ECFAE0A3C8C582C8CCFC
:1012C400C583CCF0A3C8C582C8CCC583CCDFEADE15
:1012D400E880DB89828A83E493A3F208DFF980CC77
:1012E40088F0EF60010E4E60C388F0ED2402B40470
:1012F4000050B9F582EB2402B4040050AF23234517
:06130400822390126473C5
:10130A00EF8DF0A4A8F0CF8CF0A428CE8DF0A42EF7
:02131A00FE22B1
:10131C00BC000BBE0029EF8DF084FFADF022E4CCB5
:10132C00F875F008EF2FFFEE33FEEC33FCEE9DEC7E
:10133C00984005FCEE9DFE0FD5F0E9E4CEFD22EDC4
:10134C00F8F5F0EE8420D21CFEADF075F008EF2F0E
:10135C00FFED33FD4007985006D5F0F222C398FDFF
:05136C000FD5F0EA229C
:1013710075F008758200EF2FFFEE33FECD33CDCC33
:1013810033CCC58233C5829BED9AEC99E5829840B6
:101391000CF582EE9BFEED9AFDEC99FC0FD5F0D693
:1013A100E4CEFBE4CDFAE4CCF9A88222B800C1B9BD
:1013B1000059BA002DEC8BF084CFCECDFCE5F0CBFB
:1013C100F97818EF2FFFEE33FEED33FDEC33FCEB34
:1013D10033FB10D703994004EB99FB0FD8E5E4F9EF
:1013E100FA227818EF2FFFEE33FEED33FDEC33FCDC
:1013F100C933C910D7059BE99A4007EC9BFCE99AD0
:10140100F90FD8E0E4C9FAE4CCFB2275F010EF2F14
:10141100FFEE33FEED33FDCC33CCC833C810D70714
:101421009BEC9AE899400AED9BFDEC9AFCE899F84F
:0E1431000FD5F0DAE4CDFBE4CCFAE4C8F922E2
:0E143F00C3E49FFFE49EFEE49DFDE49CFC22BE
:10144D00EB9FF5F0EA9E42F0E99D42F0EC6480C816
:06145D0064809845F022B6
:10146300EB9FF5F0EA9E42F0E99D42F0E89C45F0DF
:011473002256
:0C147400ECF0A3EDF0A3EEF0A3EFF022EB
:101B2D00021BADE493A3F8E493A34003F68001F206
:101B3D0008DFF48029E493A3F85407240CC8C333B9
:101B4D00C4540F4420C8834004F456800146F6DF88
:101B5D00E4800B0102040810204080901762E47E9F
:101B6D00019360BCA3FF543F30E509541FFEE4937D
:101B7D00A360010ECF54C025E060A840B8E493A344
:101B8D00FAE493A3F8E493A3C8C582C8CAC583CA6F
:101B9D00F0A3C8C582C8CAC583CADFE9DEE780BE27
:011852000095
:00000001FF
