:102527003F065B4F666D7D077F6F777C395E7971FC
:1025370076743854635C7367503E40231C00004632
:10254700FC60DAF266B6BEE0FEF6EE3E9C7A9E8E40
:102557006E2E1C2AC63ACEE60A7C02C4380000005A
:102249005400000000000000000000000000000031
:102259000000000000000042001D000044003C0096
:10226900000000420037000042004800004200140C
:10227900000048002F000000000000000048004056
:10228900000000000000000050001F0000000000D6
:102299000000000000000000000000012A00013BCE
:0422A90000012D0003
:10261B00C2A3C2A17F047E0012262CD2A37F047E0C
:01262B0000AE
:10262C00EF1FAC0670011E4C60140000000000008F
:0F263C0000000000000000000000000080E2220B
:05249D00A3E0FD7C003E
:0624A200AB05AA04A90726
:1024A80012261B7D08C2A18960E5601392A27F01F4
:1024B8007E0012262CE9C313F9D2A1DDE87D08C2FB
:1024C800A18B60E5601392A27F017E0012262CEAA0
:0D24D800A2E713FAEB13FBD2A1DDE4C2A3CF
:0124E50022D4
:0224E600A90744
:1024E8008D61AB0112261B7A08C2A1EB1392A27F61
:1024F800017E0012262CEBC313FBD2A1DAEB7A087B
:10250800D2A1EDC313FDC2A17F017E0012262C309B
:0E251800A203430580DAE9C2A3EDB561C3FF5B
:012526002292
:10240500E4FDFC7F8E1224A2900016E0FD7C007F87
:102415008C1224A27F8812249D7F8612249DA3E01E
:10242500FD7C007F841224A2A3E0FD7C007F821244
:1024350024A2E4FDFC7F801224A27DAA7C007F906B
:0C2445001224A27D807C007F8E0224A265
:0D276B00E4F5C7F5C5F5C675C380F5C422B9
:07267100FFE43EFEA3E0FDC3
:1026780075C78175C502AB078BC48EC3C374FF9D34
:0C268800F5C275C65A75C6A50002276B86
:1020D700E54C7F0025E0FE12213A900016EFF0E56F
:1020E7004C25E0FEE42401FFE43EFE12213AA3EF73
:1020F700F0E54C25E0FEE42402FFE43EFE12213A1F
:10210700A3EFF0E54C25E0FEE42403FFE43EFE12D6
:10211700213AA3EFF0E54C25E0FEE42404FFE43E7A
:10212700FE12213AA3EFF0E54C25E0FEE42405FF7B
:03213700E43EFE85
:10213A0075C78175C501AD078DC48EC375C65A753D
:0C214A00C6A500C374FF95C2FF12276BEE
:012156002266
:0726EF00E54C7F0025E0FE31
:1026F60075C78175C503AD078DC48EC375C65A757A
:06270600C6A50002276BCE
:1023B800C298E55025E0F54F859950E550624F8564
:0823C8004F5DAD52AC51AF4F67
:1023D0008C608D61EF6261E4FDE56130E013E560E2
:1023E000C313F560E56113F5616360A0636101806B
:1023F0000BE560C313F560E56113F5610DBD08D908
:04240000AE60AF61BA
:0124040022B5
:10215700309879C298859960E560B4E90CE52AB4AE
:10216700E904052D8003E4F52DE560B4ED0CE52ABF
:10217700B4ED04052D8003E4F52DE53B64EB703CDD
:10218700E52AD394205018C299E52AFE7C00E4255D
:1021970060FFEC3EFE12213A8F9920991F80FBE5E4
:1021A7002AC394804016E52AD39490500F432A01FE
:1021B700C299AF2A1224E68F993099FD852A3B856B
:0C21C700602AE52DD3940A400375C72060
:0121D30022E9
:1000BE00E4F55890002093F559A3E493F55AA3E480
:1000CE0093F55BE4F55CF553D20CD2AFC298C20641
:1000DE00F54BF54CC3E54C94C8E54B940040030238
:1000EE0004E130060A054CE54C7002054BC20630A1
:1000FE0098E2C29885994FE54F64ED60030202F9CC
:10010E00E54FB4ED12C2997599AA3098FDC2988543
:10011E00995085504F80E974FFF551F5521223CA5C
:10012E008E518F52E4F54BF54C3098FDC298E55048
:10013E0025E0F54F859950E550624F854F5F1223AC
:10014E00CA8E518F523098FDC298E55025E0F54F7A
:10015E00859950E550624F854F5E1223CA8E518F9E
:10016E00523098FD1223B88E518F52054CE54C70CB
:10017E0002054BC39403E54B940040ADAF5FAE5EFA
:10018E00AD5DAC5C8F578E568D558C54E4F54BF5AA
:10019E004C3098FD1223B88E518F523098FDC29874
:1001AE00E55025E0F54F859950E550624F854F5E3D
:1001BE001223CA8E518F523098FDC298E55025E019
:1001CE00F54F859950E550624F854F5F1223CA8EC9
:1001DE00518F52AF5BAE5AAD59AC58AB5FAA5EA908
:1001EE005DA85CC31216EE7003755301054CE54C09
:1001FE007002054BC394E8E54B940340943098FD90
:10020E001223B88E518F523098FD1223B88E518F13
:10021E0052E552455160030202D1E5536401600379
:10022E000202CC754F55F54BF54CE4F553E5537082
:10023E00771226EFE54C25E0FEAD55122678E54CFB
:10024E0025E0FEEF2401FFE43EFEAD56122678E5D2
:10025E004C25E0FEE42402FFE43EFEAD5712267864
:10026E00E54C25E0FEE42401122136EFB556047C60
:10027E000180027C00E54C7F0025E0FE12213AEF62
:10028E00B555047F0180027F00EF5CFCE54C25E054
:10029E00FEE42402122136EFB557047F0180027F5F
:1002AE0000EF5CF55302023B054CE54C7002054B2A
:1002BE00C39403E54B940050030202388008754F37
:1002CE00E18003754FEEE4F54BF54CC3E54C940518
:1002DE00E54B940040030200E2C299854F99309994
:1002EE00FD054CE54C70E4054B80E0E54F64E9609C
:1002FE00030200E2E54FB4E912C2997599A5309850
:10030E00FDC29885995085504F80E974FFF551F5DF
:10031E00521223CA8E518F523098FDC298E5502545
:10032E00E0F54F859950E550624F854F5F1223CA15
:10033E008E518F523098FDC298E55025E0F54F85CD
:10034E009950E550624F854F5E1223CA8E518F52DF
:10035E003098FD1223B88E518F52AF5FAE5EAD5DF9
:10036E00AC5C8F578E568D558C543098FDC298E5E7
:10037E005025E0F54F859950E550624F854F5F123D
:10038E0023CA8E518F523098FDC298E55025E0F564
:10039E004F859950E550624F854F5E1223CA8E519C
:1003AE008F523098FD1223B88E518F523098FDC265
:1003BE0098E55025E0F54F859950E550624F122390
:1003CE00CA8E518F523098FDC298E55025E0F54FF8
:1003DE00859950E550624F1223CA8E518F52E552C5
:1003EE00455160030204B9F553E55360030204A8B6
:1003FE00FDFC7F8E1224A2AF57EFFD7C007F801292
:10040E0024A2AF56EFFD7C007F821224A2AF55EFDF
:10041E00FD7C007F841224A2AF5FAE5EAD5DAC5C4E
:10042E008F578E568D558C54AF57EFFD7C007F86BF
:10043E001224A2AF56EFFD7C007F881224A2AF5586
:10044E00EFFD7C007F8C1224A27DAA7C007F90128F
:10045E0024A27D807C007F8E1224A27F891224E646
:10046E00EFB556067F01C00780047F00C0077F8767
:10047E001224E6EFB557047E0180027E00D0E05EC6
:10048E00FFC0077F8D1224E6EFB555047E01800272
:10049E007E00D0E05EF5530203F77F007E10122639
:1004AE00F6E4FD122678754F558003754FEEE4F590
:1004BE004BF54CC3E54C9405E54B9400400302000C
:1004CE00E2C299854F993099FD054CE54C70E405D3
:1004DE004B80E07F8F1224E68F4FE54F547F70F3F1
:1004EE007F811224E68F4FE54F20E7030209C8E40F
:1004FE00F550F553F54B754C04F54D754E05E54E1F
:10050E0025E0FEE42401122136AC07E54C25E0FE81
:10051E00E42401122136EFB504047C0180027C0034
:10052E00E54E7F0025E0FE12213AAB07E54C7F0039
:10053E0025E0FE12213AEFB503047F0180027F0011
:10054E00EF5CFCE54E25E0FEE42402122136AB07FB
:10055E00E54C25E0FEE42402122136EFB503047FBC
:10056E000180027F00EF5CFCE54E25E0FEE42403F3
:10057E00122136AB07E54C25E0FEE42403122136AA
:10058E00EFB503047F0180027F00EF5CFCE54E2592
:10059E00E0FEE42404122136AB07E54C25E0FEE430
:1005AE002404122136EFB503047F0180027F00EF91
:1005BE005CFCE54E122130AB0712212EEFB5030481
:1005CE007F0180027F00EF5CFFE55370047E0180A7
:1005DE00027E00EE5F60091220D7A3EFF075530183
:1005EE00754B00754C04754D00754E06E54E25E0B5
:1005FE00FEE42401122136AC07E54C25E0FEE4248E
:10060E0001122136EFB504047C0180027C00E54E18
:10061E007F0025E0FE12213AAB07E54C7F0025E076
:10062E00FE12213AEFB503047F0180027F00EF5CDA
:10063E00FCE54E25E0FEE42402122136AB07E54C24
:10064E0025E0FEE42402122136EFB503047F01807B
:10065E00027F00EF5CFCE54E25E0FEE42403122150
:10066E0036AB07E54C25E0FEE42403122136EFB548
:10067E0003047F0180027F00EF5CFCE54E25E0FE67
:10068E00E42404122136AB07E54C25E0FEE42404F5
:10069E00122136EFB503047F0180027F00EF5CFC70
:1006AE00E54E122130AB0712212EEFB503047F0168
:1006BE0080027F00EF5CFFE55370047E0180027EB6
:1006CE0000EE5F60091220D7A3EFF0755301754B52
:1006DE0000754C05754D00754E06E54E25E0FEE4A1
:1006EE002401122136AC07E54C25E0FEE42401126C
:1006FE002136EFB504047C0180027C00E54E7F00BC
:10070E0025E0FE12213AAB07E54C7F0025E0FE12F4
:10071E00213AEFB503047F0180027F00EF5CFCE518
:10072E004E25E0FEE42402122136AB07E54C25E00F
:10073E00FEE42402122136EFB503047F0180027F0E
:10074E0000EF5CFCE54E25E0FEE42403122136ABFF
:10075E0007E54C25E0FEE42403122136EFB5030431
:10076E007F0180027F00EF5CFCE54E25E0FEE42475
:10077E0004122136AB07E54C25E0FEE424041221D9
:10078E0036EFB503047F0180027F00EF5CFCE54E7F
:10079E00122130AB0712212EEFB503047F01800228
:1007AE007F00EF5CFFE55370047E0180027E00EE59
:1007BE005F60091220D7A3EFF0755301900016E089
:1007CE00754B00F54C754D00E54C540FF54EE54B51
:1007DE00C4F854F0C868F54BE54CC4540F48F54CBA
:1007EE00AE4BFF7C007D0A121595E54E2FF54CE5BC
:1007FE004D3EF54BD3E54C9463E54B94004003E43A
:10080E00F553900017E0754B00F54C754D00E54C17
:10081E00540FF54EE54BC4F854F0C868F54BE54C53
:10082E00C4540F48F54CAE4BFF7C007D0A12159553
:10083E00E54E2FF54CE54D3EF54B454C70047F01D2
:10084E0080027F00D3E54C940CE54B940040047E6F
:10085E000180027E00EE4F6003E4F553900018E035
:10086E00754B00F54C754D00E54C540FF54EE54BB0
:10087E00C4F854F0C868F54BE54CC4540F48F54C19
:10088E00AE4BFF7C007D0A121595E54E2FF54CE51B
:10089E004D3EF54B454C70047F0180027F00D3E541
:1008AE004C941FE54B940040047E0180027E00EEC6
:1008BE004F6003E4F5537F007E1012213A754B0012
:1008CE008F4CD3E54C940AE54B94004005E4F55368
:1008DE00800E7F007E101226F6E54C04FD1226785F
:1008EE00E55360061224050209C8D2B21221573010
:1008FE0006FD054CE54C7002054BC206AE4BFFE4FF
:10090E00FCFD7B507AC3F9F8C31216D85005E4F5F6
:10091E004BF54CAE4BAF4C7C007D641215A78D4F42
:10092E00E54FB401091225E1539AFD85299BAE4B83
:10093E00AF4C7C277D101215A78F4F752B07E54FF7
:10094E00B4021C900020E493F550E54F24FE900075
:10095E0039F0E550C4540FA3F0E550540FA3F0E561
:10096E004FB4031C900021E493F550E54F24FE9004
:10097E000039F0E550C4540FA3F0E550540FA3F026
:10098E00E54FB4041C900022E493F550E54F24FE8D
:10099E00900039F0E550C4540FA3F0E550540FA366
:1009AE00F0E54FC3940240030208F8900039740A30
:1009BE00F0E4A3F0A304F00208F87F911224E68F6E
:1009CE004FE54F64AA7003020AACE4F550D2B2129E
:1009DE0021573006FD054CE54C7002054BC206AEA4
:1009EE004BFFE4FCFD7B507AC3F9F8C31216D850C6
:1009FE0005E4F54BF54CAE4BAF4C7C007D64121507
:100A0E00A78D4FE54FB401091225E1539AFD8529B3
:100A1E009BAE4BAF4C7C277D101215A78F4F752BBD
:100A2E0007E54FB4021C900020E493F550E54F24E7
:100A3E00FE900039F0E550C4540FA3F0E550540F6A
:100A4E00A3F0E54FB4031C900021E493F550E54F5D
:100A5E0024FE900039F0E550C4540FA3F0E5505435
:100A6E000FA3F0E54FB4041C900022E493F550E57B
:100A7E004F24FE900039F0E550C4540FA3F0E5501A
:100A8E00540FA3F0E54FC3940240030209DB90001C
:100A9E0039740AF0E4A3F0A37403F00209DBE4F561
:100AAE005490800093F4F555A3E493F4F556A3E423
:100ABE0093F4F557E4F55890820093F4F559A3E4B6
:100ACE0093F4F55AA3E493F4F55BAF5BAE5AAD59CC
:100ADE00AC58AB57AA56A955A854C31216EE7003BC
:100AEE00020B7878547C007D007B007A0079587E6A
:100AFE00007F0412156FE4F55890840093F4F559B5
:100B0E00A3E493F4F55AA3E493F4F55BAF5BAE5A0A
:100B1E00AD59AC58AB57AA56A955A854C31216EEE8
:100B2E00604878547C007D007B007A0079587E0006
:100B3E007F0412156FE4F55890800093F4F559A3D5
:100B4E00E493F4F55AA3E493F4F55BAF5BAE5AADC0
:100B5E0059AC58AB57AA56A955A854C31216EE60F5
:100B6E0009E4F557F556F555F554E4F55C7F8D120D
:100B7E0024E68F5D7F891224E68F5E7F871224E63E
:100B8E008F5FAF57AE56AD55AC54AB5FAA5EA95D45
:100B9E00A85CD31216EE5003020C7DD2B21221576E
:100BAE003006FD054CE54C7002054BC206AE4BFF00
:100BBE00E4FCFD7B507AC3F9F8C31216D85005E455
:100BCE00F54BF54CAE4BAF4C7C007D641215A78DEA
:100BDE004FE54FB4010C7529211225E4539AFD857A
:100BEE00299BAE4BAF4C7C277D101215A78F4F75EE
:100BFE002B07E54FB4021C900020E493F550E54F0F
:100C0E0024FE900039F0E550C4540FA3F0E5505483
:100C1E000FA3F0E54FB4031C900021E493F550E5CB
:100C2E004F24FE900039F0E550C4540FA3F0E55068
:100C3E00540FA3F0E54FB4041C900022E493F5503A
:100C4E00E54F24FE900039F0E550C4540FA3F0E5B3
:100C5E0050540FA3F0E54FC394024003020BA9902A
:100C6E000039740AF0E4A3F0A37402F0020BA97F1A
:100C7E008D1224E6900016EFF07F891224E6A3EF82
:100C8E00F07F871224E6A3EFF07F851224E6A3EF10
:100C9E00F07F831224E6A3EFF07F811224E6A3EF08
:100CAE00F0754B00754C04E4F553E5536003020DEB
:100CBE00A01226EFE54C25E0FE900016E0FD122670
:100CCE0078E54C25E0FEEF2401122671E54C25E077
:100CDE00FEE42402122671E54C25E0FEE424031204
:100CEE002671E54C25E0FEE42404122671E54C2520
:100CFE00E0FEE42405122671E54C25E0FEE4240115
:100D0E00122136900017E0B507047C0180027C00AA
:100D1E00E54C7F0025E0FE12213A900016E0B50763
:100D2E00047F0180027F00EF5CFCE54C25E0FEE4D1
:100D3E002402122136900018E0B507047F018002CC
:100D4E007F00EF5CFCE54C25E0FEE4240312213627
:100D5E00900019E0B507047F0180027F00EF5CFC74
:100D6E00E54C25E0FEE4240412213690001AE0B58D
:100D7E0007047F0180027F00EF5CFC12212E9000A1
:100D8E001BE0B507047F0180027F00EF5CF5530284
:100D9E000CB8054CE54C7002054BC39406E54B941C
:080DAE00005003020CB5C20C59
:010DB600221A
:1026B300EF1392C3EFA2E192C2A2E292FBA2E392D2
:0E26C300FAA2E492F9A2E592C1A2E692F822F0
:1025A500AE07AC03AF05C2B5C2B6C2B7E527700921
:1025B500AF041226B3D2B58018E527B40107122659
:1025C500B3D2B6800CE527B40207AF061226B3D204
:0C25D500B7E5270475F0038485F0272289
:10230B00E52B24FD601104701C900021E4937547AC
:10231B0000F5487A01801A900022E493754700F586
:10232B00487A02800C900020E493754700F548E44E
:10233B00FAE548540FFCE547C4F854F0C868F54774
:10234B00E548C4540F48F548FEEA90252793FFEE65
:0A235B0093FDAE04EE93FB0225A5EE
:101CB8001538E538702F753864D390001EE0943BD2
:101CC80090001DE09402500FE53925E0543FF539A6
:101CD8007010753901800BE539C313F53970037538
:101CE800392085394A90001DE0FEA3E0FFD3943BDC
:101CF800EE94025064C3743B9FF54874029EF54706
:101D0800D3E54894C7E547940040028067AE47AFE3
:101D1800487C007D0A1215A78D49AE47AF487C0064
:101D28007D0A1215A78E478F487C007D0A1215A7D9
:101D3800AA05AE47AF487C007D0A1215A78E478FCB
:101D4800487C007D0A1215A774272DF58274253C5E
:101D5800F583E493F54A021E2590001EE024C5F59C
:101D68004890001DE034FDF547D3E54894C7E547A2
:101D780094004036AE47AF487C007D0A1215A78D07
:101D880049AE47AF487C007D0A1215A78E478F4899
:101D98007C007D0A1215A7AA05AE47AF487C007DD6
:101DA8000A1215A78E478F488073D3E5489463E5D8
:101DB800479400AE47AF487C007D0A40311215A712
:101DC8008D49AE47AF487C007D0A1215A78E478F14
:101DD800487C007D0A1215A7AA05AE47AF487C00CB
:101DE8007D0A1215A78E478F48754A46802F12150F
:101DF800A78D49AE47AF487C007D0A1215A78E47CC
:101E08008F487C007D0A1215A7AA05AE47AF487C0B
:101E1800007D0A1215A78E478F48754A40EA90251B
:0C1E28002793FDE54993FBAF4A0225A576
:10256700E529541FFB7C007D0AFF7E001215A78D0D
:10257700477C007D0AAF037E001215A7AA067C00E0
:102587007D0A1215A7AE05E529C413540754039015
:0E259700252793FFEE93FDE54793FB0225A554
:10274500E547540FFFE547C4540FFE90252793FD39
:08275500EF93FBAF470225A53D
:1026D100900039E090252793FF90003AE09025275C
:0E26E10093FD90003BE090252793FB0225A57A
:0E275D00900039E0FFA3E0FDA3E0FB0225A5FC
:10264B00E52B24FC500D600E14600E14600E14600C
:10265B000E800F02230B021CB802256702274502CE
:06266B0026D112275D22BA
:10272900EF700475BCE322BF010475BCE422BF024B
:0C2739000475BCE522BF030375BCE2225E
:09286B00E4F5BDF5BE43BC0822F2
:10270C00E5BC30E4FB53BCE7AFBDEF75F004A4FFB0
:0D271C00E5BE54037C002FFFEC35F0FE22DB
:101AE80020CA0E900001E0C394C85011E004F080B1
:101AF8000C900001E0D394004003E014F020840E21
:101B0800900002E0C394C85011E004F0800C9000EB
:101B180002E0D394004003E014F020830E90000309
:101B2800E0C394C85011E004F0800C900003E0D3A7
:101B380094004003E014F020A40E900004E0C39445
:101B4800C85011E004F0800C900004E0D3940040E9
:101B580003E014F020A50E900005E0C394C85011CE
:101B6800E004F0800C900005E0D394004003E014FA
:101B7800F020A60E900006E0C394C85011E004F0CF
:101B8800800C900006E0D394004003E014F020A7F6
:101B98000E900007E0C394C85011E004F0800C9048
:101BA8000007E0D394004003E014F020FC0E9000FE
:101BB80008E0C394C85011E004F0800C900008E0DD
:101BC800D394004003E014F020FD0E900009E0C318
:101BD80094C85011E004F0800C900009E0D3940000
:101BE8004003E014F020FE0E90000AE0C394C850B1
:101BF80011E004F0800C90000AE0D394004003E068
:101C080014F020FF0E90000BE0C394C85011E004BC
:101C1800F0800C90000BE0D394004003E014F02017
:101C2800C50E90000CE0C394C85011E004F0800C7D
:101C380090000CE0D394004003E014F020C60E900E
:101C4800000DE0C394C85011E004F0800C90000D22
:101C5800E0D394004003E014F020800E90000EE0E2
:101C6800C394C85011E004F0800C90000EE0D394A7
:101C7800004003E014F020810E90000FE0C394C8E8
:101C88005011E004F0800C90000FE0D39400400362
:101C9800E014F020820D900010E0C394C85010E0CA
:101CA80004F022900010E0D394004003E014F022E6
:101F0300854347854449854548300003021FA6E5BC
:101F130048C3942850047F0180027F00E547C3949F
:101F23002850047E0180027E00EE5FFFE549C394E2
:101F33002850047E0180027E00EE5F6066E547C3A1
:101F430095485030E549954740047F0180027F0062
:101F5300E549C3954850047E0180027E00EE5F6030
:101F630008E524603E1524803AE524C394C8503321
:101F73000524802FE549D3954740047F0180027FE4
:101F830000E549C3954850047E0180027E00EE4F70
:101F93006008E524600D15248009E524C394C85026
:101FA300020524E524D394644008752496752967B3
:041FB300D200A200B6
:011FB7002207
:10173C00E52CD3949B40030219BE900042E0FCA31D
:10174C00E0FDE41213E57B7C7AEF790D78421213FD
:10175C0073600840067F01C00780047F00C00790BB
:10176C000040E0FCA3E0FDE41213E57B7C7AEF790A
:10177C000D7842121373600640047E0180027E00D5
:10178C00D0E05EFFC007900044E0FCA3E0FDE41253
:10179C0013E57B7C7AEF790D784212137360064067
:1017AC00047E0180027E00D0E05EFFC00790004600
:1017BC00E0FCA3E0FDE41213E57B7C7AEF790D7875
:1017CC0042121373600640047E0180027E00D0E05A
:1017DC005E60030219BE300E70900042E0FCA3E084
:1017EC00FDE41213E57B3A7AE779D478421213734D
:1017FC0050067F01C00780047F00C007900040E0C6
:10180C00FCA3E0FDE41213E57B3A7AE779D4784245
:10181C0012137350047E0180027E00D0E05EFFC084
:10182C0007900044E0FCA3E0FDE41213E57B3A7A58
:10183C00E779D4784212137350047E0180027E0043
:10184C00D0E05E6076C20E807B900042E0FCA3E0AC
:10185C00FDE41213E57B3A7AE779D47842121373DC
:10186C00600840067F01C00780047F00C00790001D
:10187C0040E0FCA3E0FDE41213E57B3A7AE779D46F
:10188C007842121373600640047E0180027E00D001
:10189C00E04EFFC007900044E0FCA3E0FDE412130F
:1018AC00E57B3A7AE779D4784212137360064004E8
:1018BC007E0180027E00D0E04E6007D20E75297545
:1018CC008002C20E300D76900042E0FCA3E0FDE4F5
:1018DC001213E57B7C7AEF790D7843121373600851
:1018EC0040067F01C00780047F00C007900040E0E5
:1018FC00FCA3E0FDE41213E57B7C7AEF790D7843D1
:10190C00121373600640047E0180027E00D0E05EFC
:10191C00FFC007900044E0FCA3E0FDE41213E57B5C
:10192C007C7AEF790D7843121373600640047E01C4
:10193C0080027E00D0E05E6070C20D807590004227
:10194C00E0FCA3E0FDE41213E57B7C7AEF790D78E3
:10195C004312137350067F01C00780047F00C00739
:10196C00900040E0FCA3E0FDE41213E57B7C7AEFF1
:10197C00790D784312137350047E0180027E00D0DF
:10198C00E04EFFC007900044E0FCA3E0FDE412131E
:10199C00E57B7C7AEF790D784312137350047E014A
:1019AC0080027E00D0E04E6007D20D752974800253
:1019BC00C20DE53AD394014004C20DC20E90004210
:1019CC00E0FCA3E0FDE41213E57B7C7AEF790D7863
:1019DC0042121373600840067F01C00780047F0029
:1019EC00C007900040E0FCA3E0FDE41213E57B7C13
:1019FC007AEF790D7842121373600640047E0180F1
:101A0C00027E00D0E04EFFC007900044E0FCA3E053
:101A1C00FDE41213E57B7C7AEF790D784212137397
:101A2C00600640047E0180027E00D0E04EFFC007BD
:101A3C00900046E0FCA3E0FDE41213E57B7C7AEF1A
:101A4C00790D7842121373600640047E0180027E89
:101A5C0000D0E04EFFC007900042E0FCA3E0FDE4A4
:101A6C001213E57B3A7AE779D47842121373500655
:101A7C007F01C00780047F00C007900040E0FCA3FA
:101A8C00E0FDE41213E57B3A7AE779D4784212133D
:101A9C007350047E0180027E00D0E04EFFC00790A0
:101AAC000044E0FCA3E0FDE41213E57B3A7AE7790D
:101ABC00D4784212137350047E0180027E00D0E071
:101ACC004EFED0E05E6007D2017529688002C2012B
:0C1ADC00121F03A20E720D720172002294
:1021D400D3900038E094F4900037E094014034E068
:1021E400FEA3E0FBAA06E4F9F890003CE0FCA3E0BF
:1021F400FDA3E0FEA3E0FF12163890001DEEF0A34D
:10220400EFF0E4FCFD90003C1216FF900037E4F080
:10221400A304F0AE3EAF3F7C077DD01215A7C39058
:10222400001EE09FFF90001DE09EFEC3EF943BEE76
:1022340094025004C207800575296AD207300B0244
:05224400C207A2072201
:101FB800D210C20B900000E0C3943250037529215F
:101FC800900001E0C394325003752921900002E08B
:101FD800C3943250057529238066900003E0C394AA
:101FE8003250057529228058900004E0C39432507D
:101FF80005752921804A900005E0C3943250057583
:102008002931803C900006E0C39432500575293090
:10201800802E900007E0C394325005752964802013
:10202800900008E0C3943250057529728012900020
:1020380009E0C3943250057529698004C210D20B97
:02204800A210E4
:01204A002273
:1022AE00D21090000AE0D39400404BD205A3E094E4
:1022BE0032500575292B804290000CE0C3943250A9
:1022CE0005752973803490000DE0C3943250057566
:1022DE0029618026752902D20BAE3EAF3FE4FCFD8C
:1022EE007B607AEAF9F8D31216D8400E053FE53F27
:0C22FE007008053E8004C210C20BA21044
:01230A0022B0
:10245100D21090000EE0D39496403AD205A3E094B6
:1024610032500A75292CE4F53EF53F802C9000107E
:10247100E0C394325005752961801E752903D20B82
:10248100D3E53F9400E53E9400400EE53F153F70D3
:0B24910008153E8004C210C20BA21010
:01249C00221D
:0D277800C20B30050475290122E4F5292269
:102365001221D4402612173C4021300511121FB806
:1023750040191222AE4014122451400F800A122235
:10238500AE40081224514003122778E52CD394EB74
:102395004014300005C2B2752CFF90000EE0D394B6
:1023A50096400FC2B322A20072077201720A92B25E
:0323B500C2B3228E
:0325E10075292138
:1025E400E4FFE52930E0010FE52930E1010FE52999
:1025F40030E2010FE52930E3010FE52930E4010F52
:10260400E52930E5010FE52930E6010FEF30E0065A
:0626140074802529F52960
:01261A00229D
:10269400758DFB758BFB75985875D6FF75D71075BE
:0F26A4009A5875AC98758498758E14438E0122E0
:03000B00020DB72C
:100DB700C0E0C0F0C083C082C0D075D000C000C002
:0D0DC70001C002C003C004C005C006C00783
:100DD400758CFE758ACD75C13E900049E004F070B3
:100DE40006900048E004F0D3900049E0940F90008E
:100DF40048E09427400FE52B94045002052B900003
:100E040048E4F0A3F0300503752B05300C081226D6
:100E14004BD2060212B812286B121AE8E546600398
:100E2400020FBA90003CE0F8A3E0F9A3E0FAA3E0D3
:100E3400FB900035E0FEA3E0FFE4FCFDEB2FFFEAAE
:100E44003EFEED39FDEC38FC90003C1216FF90009C
:100E540038E004F07006900037E004F0D3900015F9
:100E6400E09400900014E09400400CA3E024FFF010
:100E7400900014E034FFF00532E53270020531AE23
:100E840031FF7C007D1F1215A78D26E52660030225
:100E94000FB2122365D3E53294D8E531940450039C
:100EA400020F7FAE31AF32AB07AA06E4F9F8900027
:100EB4001FE0FCA3E0FDA3E0FEA3E0FF12163890C0
:100EC4000040EEF0A3EFF090001F12170B0000009B
:100ED40000AE31AF32AB07AA06E4F9F8900023E084
:100EE400FCA3E0FDA3E0FEA3E0FF1216389000424D
:100EF400EEF0A3EFF090002312170B000000009017
:100F04000027E0FCA3E0FDA3E0FEA3E0FFE412134E
:100F1400E07B147AAE7987783F1212D612141E90B1
:100F240000271216FF900042E0FFA3E0A3CFF0A336
:100F3400EFF090002712170B00000000AE31AF3223
:100F4400AB07AA06E4F9F890002BE0FCA3E0FDA3AC
:100F5400E0FEA3E0FF121638900046EEF0A3EFF097
:100F640090002B12170B0000000075310075320041
:100F7400053AE53A75F0058485F03A300B13D3E56C
:100F840032946CE53194024003D38001C392C8804B
:100F940002C2C81225E4539AFD85299BE52CD394FB
:100FA400004002152CE52C700D752C648008E52694
:100FB40030E00312264BE546640160030210899079
:100FC400002FE0FEA3E0FFC3E49FFF74049EFE90A5
:100FD400002FF0A3EFF0D39400EE9402403390007E
:100FE4002FE0FEA3E0FFE4FCFD90001FE0F8A3E087
:100FF400F9A3E0FAA3E02FFFEA3EFEED39FDEC3859
:10100400FCE42FFFEE34FEFEED34FFFDEC34FF80F4
:101014003A90001FE0FCA3E0FDA3E0FEA3E024005F
:10102400FFEE3402FEE43DFDE43CFCC006C0079044
:10103400002FE0FEA3E0FBAA06D007D006C3EF9B77
:10104400FFEE9AFEED9400FDEC9400FC90001F125C
:1010540016FF200216D3900030E0944090002FE059
:1010640094024018D2027543008011C3900030E00E
:1010740094C090002FE094015002C202E543C3944F
:10108400C750020543E54664026003021141900023
:1010940031E0FEA3E0FFD39400EE9402402BE4FC85
:1010A400FD900023E0F8A3E0F9A3E0FAA3E02FFF0A
:1010B400EA3EFEED39FDEC38FCE42FFFEE34FEFE93
:1010C400ED34FFFDEC34FF803A900023E0FCA3E014
:1010D400FDA3E0FEA3E02400FFEE3402FEE43DFDA8
:1010E400E43CFCC006C007900031E0FEA3E0FBAA8C
:1010F40006D007D006C3EF9BFFEE9AFEED9400FDE9
:10110400EC9400FC9000231216FF200316D39000E9
:1011140032E09440900031E094024018D2037544C8
:10112400008011C3900032E094C0900031E094013B
:101134005002C203E544C394C750020544E5466423
:10114400036003021298900033E0FEA3E0FFD394FF
:1011540000EE9402402BE4FCFD90002BE0F8A3E0A9
:10116400F9A3E0FAA3E02FFFEA3EFEED39FDEC38E7
:10117400FCE42FFFEE34FEFEED34FFFDEC34FF8083
:101184003A90002BE0FCA3E0FDA3E0FEA3E02400E2
:10119400FFEE3402FEE43DFDE43CFCC006C00790D3
:1011A4000033E0FEA3E0FBAA06D007D006C3EF9B02
:1011B400FFEE9AFEED9400FDEC9400FC90002B12DF
:1011C40016FF900031E0FEA3E0FF900030E02FFF17
:1011D40090002FE03EFEC3E49FFF74069EFE900045
:1011E40033F0A3EFF0D39400EE9402403390003335
:1011F400E0FEA3E0FFE4FCFD900027E0F8A3E0F9A3
:10120400A3E0FAA3E02FFFEA3EFEED39FDEC38FC43
:10121400E42FFFEE34FEFEED34FFFDEC34FF803AA4
:10122400900027E0FCA3E0FDA3E0FEA3E02400FF80
:10123400EE3402FEE43DFDE43CFCC006C007900031
:1012440033E0FEA3E0FBAA06D007D006C3EF9BFF62
:10125400EE9AFEED9400FDEC9400FC90002712162B
:10126400FF200416D3900034E09440900033E094BF
:10127400024018D2047545008011C3900034E094F4
:10128400C0900033E094015002C204E545C394C702
:101294005002054512270CE54625E0242FF582E48B
:1012A4003400F583EEF0A3EFF0E546045403F5466D
:0412B400FF122729D5
:1012B800D007D006D005D004D003D002D001D0008A
:0B12C800D0D0D082D083D0F0D0E03234
:030003000227854C
:0A278500C2997599002099F880FBB5
:0300130002278F32
:0A278F00C2997599022099F880FBA9
:03001B0002279920
:0A279900C2997599032099F880FB9E
:030023000227A30E
:0A27A300C2997599042099F880FB93
:03002B000227ADFC
:0A27AD00C2997599052099F880FB88
:030033000227B7EA
:0A27B700C2997599062099F880FB7D
:03003B000227C1D8
:0A27C100C2997599072099F880FB72
:030043000227CBC6
:0A27CB00C2997599082099F880FB67
:03004B000227D5B4
:0A27D500C2997599092099F880FB5C
:030053000227DFA2
:0A27DF00C2997599102099F880FB4B
:03005B000227E990
:0A27E900C2997599112099F880FB40
:030063000227F37E
:0A27F300C2997599122099F880FB35
:03006B000227FD6C
:0A27FD00C2997599132099F880FB2A
:0300730002280759
:0A280700C2997599142099F880FB1E
:03007B0002281147
:0A281100C2997599152099F880FB13
:0300830002281B35
:0A281B00C2997599162099F880FB08
:03008B0002282523
:0A282500C2997599172099F880FBFD
:0300930002282F11
:0A282F00C2997599182099F880FBF2
:03009B00022839FF
:0A283900C2997599192099F880FBE7
:0300A300022843ED
:0A284300C2997599202099F880FBD6
:0300AB0002284DDB
:0A284D00C2997599212099F880FBCB
:0300B300022857C9
:0A285700C2997599222099F880FBC0
:0300BB00022861B7
:0A286100C2997599232099F880FBB5
:101E3400E4F5A8758CFE758ACD758921D28CD2A95A
:101E440012269475BC6043BC80C2B8D2B9F5B5758E
:101E5400BC6043BC80F593F5947591FC7592FCF5D8
:101E640095F596F5B175B2FCF5B3F5B4F5C975CA37
:101E740003F5CB75CC07F5E1F5E2F529C208C207F5
:101E8400C200C201C205D2B3C2B290001DF0A3F0D9
:101E9400900037F0A304F0C202C203C204E4F524A4
:101EA400F543F544F545F528F526752CFFF53EF583
:101EB4003FF534F535C209C20A1200BED2AFE4F5CB
:101EC40029C208C207C200C201C205D2B3C2B2C24B
:101ED4000EC20D90001DF0A3F0900037F0A304F0A3
:101EE400C202C203C204E4F524F543F544F545F502
:0F1EF40028F526752CFF1221570000000080F7FB
:1012D300021494EC5D046005E85904700302148A57
:1012E300121455580460F6EC4860F2EC7004FDFEED
:1012F300FF22C860DB2481C85009C39860025006EE
:101303000214919850CAF582E9294B4A7005AB82C1
:1013130002148075F0007C1A7880C3EF9BEE9AED7F
:1013230099400DC3EF9BFFEE9AFEED99FDE842F065
:10133300DC23ACF0D0E0FFD0E0FED0E0FDAB8220B8
:10134300E7101BEB60BAEC2CFCEF33FFEE33FEED42
:1013530033FD02146CE803F830E705C0F075F000C4
:10136300EF2FFFEE33FEED33FD40B830E7C280AA26
:1013730074F8CC6480CCC86480C8F582046043C32D
:10138300EB9FF5F0EA9E42F0E99D42F0E89C45F0C0
:1013930060305018E5825FFFE582F42B5582FB50E5
:1013A300210ABA001D09B90019088016E5825BFB02
:1013B300E582F42F5582FF50090EBE00050DBD00D6
:1013C300010CC3EB9FF5F0EA9E42F0E99D42F0E881
:0D13D3009C45F06007CC4820E701B3EC22F8
:1013E00075F020800E75F010800575F0087D007E88
:1013F000007F003392D530D5031216CAEC3340106B
:10140000EF33FFEE33FEED33FDEC33FCD5F0ED2290
:0E141000E5F0247EA2D513CC92E7CDCEFF22CC
:10141E00EDD2E7CD33EC3392D524814006E4FFFEC6
:10142E00FDFC22FCE4CFCECDCC24E0501174FF8025
:10143E00EDC3CC13CCCD13CDCE13CECF13CF0470C2
:07144E00F030D5DE0216CAE2
:10145500E9D2E7C933E833F892D5EDD2E7CD33ECDD
:0714650033FC5002B2D52256
:10146C00EC30E7100FBF000C0EBE00080DBD0004E1
:10147C000BEB6014A2D5EB13FCED92E7FD2274FF8D
:10148C00FCFDFEFF22E480F8A2D574FF13FC7D80E6
:03149C00E480EFFA
:0300000002204B90
:0C204B00787FE4F6D8FD758161022092D8
:10149F00E709F608DFFA8046E709F208DFFA803E2F
:1014AF0088828C83E709F0A3DFFA8032E309F6081C
:1014BF00DFFA8078E309F208DFFA807088828C8384
:1014CF00E309F0A3DFFA806489828A83E0A3F60838
:1014DF00DFFA805889828A83E0A3F208DFFA804C12
:1014EF0080D280FA80C680D4806980F280338010E9
:1014FF0080A680EA809A80A880DA80E280CA803352
:10150F0089828A83ECFAE493A3C8C582C8CCC583C9
:10151F00CCF0A3C8C582C8CCC583CCDFE9DEE78099
:10152F000D89828A83E493A3F608DFF9ECFAA9F018
:10153F00EDFB2289828A83ECFAE0A3C8C582C8CC6E
:10154F00C583CCF0A3C8C582C8CCC583CCDFEADE87
:10155F00E880DB89828A83E493A3F208DFF980CCE9
:10156F0088F0EF60010E4E60C388F0ED2402B404E2
:10157F000050B9F582EB2402B4040050AF23234589
:06158F0082239014EF73AB
:10159500EF8DF0A4A8F0CF8CF0A428CE8DF0A42E6A
:0215A500FE2224
:1015A700BC000BBE0029EF8DF084FFADF022E4CC28
:1015B700F875F008EF2FFFEE33FEEC33FCEE9DECF1
:1015C700984005FCEE9DFE0FD5F0E9E4CEFD22ED37
:1015D700F8F5F0EE8420D21CFEADF075F008EF2F81
:1015E700FFED33FD4007985006D5F0F222C398FD72
:0515F7000FD5F0EA220F
:1015FC0075F008758200EF2FFFEE33FECD33CDCCA6
:10160C0033CCC58233C5829BED9AEC99E582984028
:10161C000CF582EE9BFEED9AFDEC99FC0FD5F0D605
:10162C00E4CEFBE4CDFAE4CCF9A88222B800C1B92F
:10163C000059BA002DEC8BF084CFCECDFCE5F0CB6D
:10164C00F97818EF2FFFEE33FEED33FDEC33FCEBA6
:10165C0033FB10D703994004EB99FB0FD8E5E4F961
:10166C00FA227818EF2FFFEE33FEED33FDEC33FC4E
:10167C00C933C910D7059BE99A4007EC9BFCE99A42
:10168C00F90FD8E0E4C9FAE4CCFB2275F010EF2F87
:10169C00FFEE33FEED33FDCC33CCC833C810D70787
:1016AC009BEC9AE899400AED9BFDEC9AFCE899F8C2
:0E16BC000FD5F0DAE4CDFBE4CCFAE4C8F92255
:0E16CA00C3E49FFFE49EFEE49DFDE49CFC2231
:1016D800EB9FF5F0EA9E42F0E99D42F0EC6480C889
:0616E80064809845F02229
:1016EE00EB9FF5F0EA9E42F0E99D42F0E89C45F052
:0116FE0022C9
:0C16FF00ECF0A3EDF0A3EEF0A3EFF0225E
:10170B00A8828583F0D083D082121722121722125F
:10171B001722121722E473E493A3C583C5F0C58384
:10172B00C8C582C8F0A3C583C5F0C583C8C582C828
:01173B00228B
:10205700021E34E493A3F8E493A34003F68001F24D
:1020670008DFF48029E493A3F85407240CC8C3338A
:10207700C4540F4420C8834004F456800146F6DF59
:10208700E4800B0102040810204080902249E47E7E
:10209700019360BCA3FF543F30E509541FFEE4934E
:1020A700A360010ECF54C025E060A840B8E493A315
:1020B700FAE493A3F8E493A3C8C582C8CAC583CA40
:1020C700F0A3C8C582C8CAC583CADFE9DEE780BEF8
:0122AD000030
:00000001FF
