:102494003F065B4F666D7D077F6F777C395E797190
:1024A40076743854635C7367503E40231C000046C6
:1024B400FC60DAF266B6BEE0FEF6EE3E9C7A9E8ED4
:1024C4006E2E1C2AC63ACEE60A7C02C438000000EE
:10221000540000000000000000000000000000006A
:102220000000000000000042001D000044003C00CF
:102230000000004200370000420048000042001445
:10224000000048002F00000000000000004800408F
:10225000000000000000000050001F00000000000F
:102260000000000000000000000000012A00013B07
:0422700000012D003C
:10254100C2A3C2A17F047E00122552D2A37F047EC2
:012551000089
:10255200EF1FAC0670011E4C60140000000000006A
:0F25620000000000000000000000000080E222E6
:05240A00A3E0FD7C00D1
:06240F00AB05AA04A907B9
:102415001225417D08C2A1895FE55F1392A27F0164
:102425007E00122552E9C313F9D2A1DDE87D08C269
:10243500A18B5FE55F1392A27F017E00122552EA10
:0D244500A2E713FAEB13FBD2A1DDE4C2A362
:012452002267
:02245300A907D7
:102455008D60AB011225417A08C2A1EB1392A27FD0
:10246500017E00122552EBC313FBD2A1DAEB7A08E9
:10247500D2A1EDC313FDC2A17F017E00122552300A
:0E248500A203430580DAE9C2A3EDB560C3FFF0
:012493002226
:10237200E4FDFC7F8E12240F900016E0FD7C007FAE
:102382008C12240F7F8812240A7F8612240AA3E06B
:10239200FD7C007F8412240FA3E0FD7C007F82126B
:1023A200240FE4FDFC7F8012240F7DAA7C007F9025
:0C23B20012240F7D807C007F8E02240F1F
:0D268B00E4F5C7F5C5F5C675C380F5C4229A
:0725C700FFE43EFEA3E0FD6E
:1025CE0075C78175C502AB078BC48EC3C374FF9DDF
:0C25DE00F5C275C65A75C6A50002268B12
:10219000E54B7F0025E0FE1221F3900016EFF0E5FD
:1021A0004B25E0FEE42401FFE43EFE1221F3A3EF01
:1021B000F0E54B25E0FEE42402FFE43EFE1221F3AD
:1021C000A3EFF0E54B25E0FEE42403FFE43EFE121E
:1021D00021F3A3EFF0E54B25E0FEE42404FFE43E09
:1021E000FE1221F3A3EFF0E54B25E0FEE42405FF0A
:0321F000E43EFECC
:1021F30075C78175C501AD078DC48EC375C65A7584
:0C220300C6A500C374FF95C2FF12268B15
:01220F0022AC
:07262700E54B7F0025E0FEFA
:10262E0075C78175C503AD078DC48EC375C65A7542
:06263E00C6A50002268B78
:10232500C298E54F25E0F54E85994FE54F624E85FC
:082335004E5CAD51AC50AF4EFF
:10233D008C5F8D60EF6260E4FDE56030E013E55F7A
:10234D00C313F55FE56013F560635FA06360018003
:10235D000BE55FC313F55FE56013F5600DBD08D99F
:04236D00AE5FAF6050
:012371002249
:06210D00D2B2C2B6C2A668
:10211300309879C29885995FE55FB4E90CE52AB4F4
:10212300E904052D8003E4F52DE55FB4ED0CE52A04
:10213300B4ED04052D8003E4F52DE53B64EB703C21
:10214300E52AD394205018C299E52AFE7C00E425A1
:102153005FFFEC3EFE1221F38F9920991F80FBE570
:102163002AC394804016E52AD39490500F432A0142
:10217300C299AF2A1224538F993099FD852A3B8542
:0C2183005F2AE52DD3940A400375C720A5
:01218F00222D
:1000BE00E4F55790002093F558A3E493F559A3E483
:1000CE0093F55AE4F55BF552D20CD2AFC298C20644
:1000DE00F54AF54BC3E54B94C8E54A94004003023C
:1000EE0004E530060A054BE54B7002054AC20630A0
:1000FE0098E2C29885994EE54E64ED60030202F9CE
:10010E00E54EB4ED12C2997599AA3098FDC2988544
:10011E00994F854F4E80E974FFF550F551122337F4
:10012E008E508F51E4F54AF54B3098FDC298E54F4D
:10013E0025E0F54E85994FE54F624E854E5E1223B2
:10014E00378E508F513098FDC298E54F25E0F54E11
:10015E0085994FE54F624E854E5D1223378E508F37
:10016E00513098FD1223258E508F51054BE54B7063
:10017E0002054AC39403E54A940040ADAF5EAE5DFE
:10018E00AD5CAC5B8F568E558D548C53E4F54AF5B1
:10019E004B3098FD1223258E508F513098FDC2980A
:1001AE00E54F25E0F54E85994FE54F624E854E5D44
:1001BE001223378E508F513098FDC298E54F25E0AF
:1001CE00F54E85994FE54F624E854E5E1223378E62
:1001DE00508F51AF5AAE59AD58AC57AB5EAA5DA910
:1001EE005CA85BC31216F47003755201054BE54B08
:1001FE007002054AC394E8E54A940340943098FD92
:10020E001223258E508F513098FD1223258E508F3C
:10021E0051E551455060030202D1E552640160037D
:10022E000202CC754E55F54AF54BE4F552E5527087
:10023E0077122627E54B25E0FEAD541225CEE54B71
:10024E0025E0FEEF2401FFE43EFEAD551225CEE57E
:10025E004B25E0FEE42402FFE43EFEAD561225CE11
:10026E00E54B25E0FEE424011221EFEFB555047CA9
:10027E000180027C00E54B7F0025E0FE1221F3EFAA
:10028E00B554047F0180027F00EF5CFCE54B25E056
:10029E00FEE424021221EFEFB556047F0180027FA7
:1002AE0000EF5CF55202023B054BE54B7002054A2E
:1002BE00C39403E54A940050030202388008754E39
:1002CE00E18003754EEEE4F54AF54BC3E54B94051C
:1002DE00E54A940040030200E2C299854E99309996
:1002EE00FD054BE54B70E4054A80E0E54E64E960A0
:1002FE00030200E2E54EB4E912C2997599A5309851
:10030E00FDC29885994F854F4E80E974FFF550F5E3
:10031E00511223378E508F513098FDC298E54F25DC
:10032E00E0F54E85994FE54F624E854E5E122337AE
:10033E008E508F513098FDC298E54F25E0F54E85D1
:10034E00994FE54F624E854E5D1223378E508F5179
:10035E003098FD1223258E508F51AF5EAE5DAD5C91
:10036E00AC5B8F568E558D548C533098FDC298E5EC
:10037E004F25E0F54E85994FE54F624E854E5E1244
:10038E0023378E508F513098FDC298E54F25E0F5FA
:10039E004E85994FE54F624E854E5D1223378E5036
:1003AE008F513098FD1223258E508F513098FDC2FB
:1003BE0098E54F25E0F54E85994FE54F624E122395
:1003CE00378E508F513098FDC298E54F25E0F54E8F
:1003DE0085994FE54F624E1223378E508F51E5515E
:1003EE00455060030204BDF552E55260030204A8B5
:1003FE00FDFC7F8E12240FAF56EFFD7C007F801226
:10040E00240FAF55EFFD7C007F8212240FAF54EF07
:10041E00FD7C007F8412240FAF5EAE5DAD5CAC5BE5
:10042E008F568E558D548C53AF56EFFD7C007F86C4
:10043E0012240FAF55EFFD7C007F8812240FAF54AE
:10044E00EFFD7C007F8C12240F7DAA7C007F901222
:10045E00240F7D807C007F8E12240F7F89122453FF
:10046E00EFB555067F01C00780047F00C0077F8768
:10047E00122453EFB556047E0180027E00D0E05E5A
:10048E00FFC0077F8D122453EFB554047E01800206
:10049E007E00D0E05EF5520203F77F007E1012263A
:1004AE002EE4FD1225CED2A6D2B6754E558003751A
:1004BE004EEEE4F54AF54BC3E54B9405E54A940040
:1004CE0040030200E2C299854E993099FD054BE535
:1004DE004B70E4054A80E07F8F1224538F4EE54E19
:1004EE00547F70F37F811224538F4EE54E20E70325
:1004FE000209D2E4F54FF552F54A754B04F54C75E9
:10050E004D05E54D25E0FEE424011221EFAC07E593
:10051E004B25E0FEE424011221EFEFB504047C012B
:10052E0080027C00E54D7F0025E0FE1221F3AB0733
:10053E00E54B7F0025E0FE1221F3EFB503047F01AA
:10054E0080027F00EF5CFCE54D25E0FEE424021204
:10055E0021EFAB07E54B25E0FEE424021221EFEF7D
:10056E00B503047F0180027F00EF5CFCE54D25E0C2
:10057E00FEE424031221EFAB07E54B25E0FEE42455
:10058E00031221EFEFB503047F0180027F00EF5CC1
:10059E00FCE54D25E0FEE424041221EFAB07E54B0C
:1005AE0025E0FEE424041221EFEFB503047F018061
:1005BE00027F00EF5CFCE54D1221E9AB071221E74B
:1005CE00EFB503047F0180027F00EF5CFFE5527000
:1005DE00047E0180027E00EE5F6009122190A3EF7F
:1005EE00F0755201754A00754B04754C00754D0639
:1005FE00E54D25E0FEE424011221EFAC07E54B2585
:10060E00E0FEE424011221EFEFB504047C01800228
:10061E007C00E54D7F0025E0FE1221F3AB07E54B94
:10062E007F0025E0FE1221F3EFB503047F01800267
:10063E007F00EF5CFCE54D25E0FEE424021221EF85
:10064E00AB07E54B25E0FEE424021221EFEFB503E4
:10065E00047F0180027F00EF5CFCE54D25E0FEE4A7
:10066E0024031221EFAB07E54B25E0FEE424031231
:10067E0021EFEFB503047F0180027F00EF5CFCE504
:10068E004D25E0FEE424041221EFAB07E54B25E0F7
:10069E00FEE424041221EFEFB503047F0180027FF4
:1006AE0000EF5CFCE54D1221E9AB071221E7EFB537
:1006BE0003047F0180027F00EF5CFFE55270047E31
:1006CE000180027E00EE5F6009122190A3EFF075AB
:1006DE005201754A00754B05754C00754D06E54D7A
:1006EE0025E0FEE424011221EFAC07E54B25E0FEE8
:1006FE00E424011221EFEFB504047C0180027C009A
:10070E00E54D7F0025E0FE1221F3AB07E54B7F00A0
:10071E0025E0FE1221F3EFB503047F0180027F0076
:10072E00EF5CFCE54D25E0FEE424021221EFAB0761
:10073E00E54B25E0FEE424021221EFEFB503047F22
:10074E000180027F00EF5CFCE54D25E0FEE4240312
:10075E001221EFAB07E54B25E0FEE424031221EF57
:10076E00EFB503047F0180027F00EF5CFCE54D25B1
:10077E00E0FEE424041221EFAB07E54B25E0FEE496
:10078E0024041221EFEFB503047F0180027F00EFF6
:10079E005CFCE54D1221E9AB071221E7EFB503042E
:1007AE007F0180027F00EF5CFFE55270047E0180C6
:1007BE00027E00EE5F6009122190A3EFF0755201E8
:1007CE00900016E0754A00F54B754C00E54B540F42
:1007DE00F54DE54AC4F854F0C868F54AE54BC454E3
:1007EE000F48F54BAE4AFF7C007D0A12159BE54D76
:1007FE002FF54BE54C3EF54AD3E54B9463E54A9411
:10080E00004003E4F552900017E0754A00F54B7571
:10081E004C00E54B540FF54DE54AC4F854F0C8684A
:10082E00F54AE54BC4540F48F54BAE4AFF7C007DAC
:10083E000A12159BE54D2FF54BE54C3EF54A454BFF
:10084E0070047F0180027F00D3E54B940CE54A943F
:10085E000040047E0180027E00EE4F6003E4F552FC
:10086E00900018E0754A00F54B754C00E54B540F9F
:10087E00F54DE54AC4F854F0C868F54AE54BC45442
:10088E000F48F54BAE4AFF7C007D0A12159BE54DD5
:10089E002FF54BE54C3EF54A454B70047F01800227
:1008AE007F00D3E54B941FE54A940040047E0180FF
:1008BE00027E00EE4F6003E4F5527F007E1012219F
:1008CE00F3754A008F4BD3E54B940AE54A940040EA
:1008DE0009E4F552C2A6C2B680127F007E1012261F
:1008EE002EE54B04FD1225CED2A6D2B6E5526006F9
:1008FE001223720209D212210D3006FD054BE54B73
:10090E007002054AC206AE4AFFE4FCFD7B507AC374
:10091E00F9F8C31216DE5005E4F54AF54BAE4AAFB0
:10092E004B7C007D641215AD8D4EE54EB40109125F
:10093E0024D4539AFD85299BAE4AAF4B7C277D105C
:10094E001215AD8F4E752B07E54EB4021C9000208C
:10095E00E493F54FE54E24FE900039F0E54FC45474
:10096E000FA3F0E54F540FA3F0E54EB4031C900017
:10097E0021E493F54FE54E24FE900039F0E54FC487
:10098E00540FA3F0E54F540FA3F0E54EB4041C90A2
:10099E000022E493F54FE54E24FE900039F0E54F2A
:1009AE00C4540FA3F0E54F540FA3F0E54EC39402C9
:1009BE004003020904900039740AF0E4A3F0A30482
:1009CE00F00209047F911224538F4EE54E64AA70F3
:1009DE0003020AB4E4F54F12210D3006FD054BE576
:1009EE004B7002054AC206AE4AFFE4FCFD7B507A0C
:1009FE00C3F9F8C31216DE5005E4F54AF54BAE4ABC
:100A0E00AF4B7C007D641215AD8D4EE54EB40109E1
:100A1E001224D4539AFD85299BAE4AAF4B7C277D79
:100A2E00101215AD8F4E752B07E54EB4021C9000BB
:100A3E0020E493F54FE54E24FE900039F0E54FC4C7
:100A4E00540FA3F0E54F540FA3F0E54EB4031C90E2
:100A5E000021E493F54FE54E24FE900039F0E54F6A
:100A6E00C4540FA3F0E54F540FA3F0E54EB4041C8D
:100A7E00900022E493F54FE54E24FE900039F0E508
:100A8E004FC4540FA3F0E54F540FA3F0E54EC3949B
:100A9E000240030209E5900039740AF0E4A3F0A3C2
:100AAE007403F00209E5E4F55390800093F4F554D5
:100ABE00A3E493F4F555A3E493F4F556E4F55790B7
:100ACE00820093F4F558A3E493F4F559A3E493F458
:100ADE00F55AAF5AAE59AD58AC57AB56AA55A954A4
:100AEE00A853C31216F47003020B8078537C007D5A
:100AFE00007B007A0079577E007F04121575E4F5AD
:100B0E005790840093F4F558A3E493F4F559A3E4B5
:100B1E0093F4F55AAF5AAE59AD58AC57AB56AA55D9
:100B2E00A954A853C31216F4604878537C007D0074
:100B3E007B007A0079577E007F04121575E4F55715
:100B4E0090800093F4F558A3E493F4F559A3E4933D
:100B5E00F4F55AAF5AAE59AD58AC57AB56AA55A983
:100B6E0054A853C31216F46009E4F556F555F5541E
:100B7E00F553E4F55B7F8D1224538F5C7F8912242D
:100B8E00538F5D7F871224538F5EAF56AE55AD5493
:100B9E00AC53AB5EAA5DA95CA85BD31216F45003EE
:100BAE00020C8312210D3006FD054BE54B7002053C
:100BBE004AC206AE4AFFE4FCFD7B507AC3F9F8C385
:100BCE001216DE5005E4F54AF54BAE4AAF4B7C00EB
:100BDE007D641215AD8D4EE54EB4010C75292112B2
:100BEE0024D7539AFD85299BAE4AAF4B7C277D10A7
:100BFE001215AD8F4E752B07E54EB4021C900020DA
:100C0E00E493F54FE54E24FE900039F0E54FC454C1
:100C1E000FA3F0E54F540FA3F0E54EB4031C900064
:100C2E0021E493F54FE54E24FE900039F0E54FC4D4
:100C3E00540FA3F0E54F540FA3F0E54EB4041C90EF
:100C4E000022E493F54FE54E24FE900039F0E54F77
:100C5E00C4540FA3F0E54F540FA3F0E54EC3940216
:100C6E004003020BB1900039740AF0E4A3F0A374B0
:100C7E0002F0020BB17F8D122453900016EFF07F1D
:100C8E0089122453A3EFF07F87122453A3EFF07F32
:100C9E0085122453A3EFF07F83122453A3EFF07F2A
:100CAE0081122453A3EFF0754A00754B04E4F552FC
:100CBE00E5526003020DA6122627E54B25E0FE90B5
:100CCE000016E0FD1225CEE54B25E0FEEF240112C5
:100CDE0025C7E54B25E0FEE424021225C7E54B258A
:100CEE00E0FEE424031225C7E54B25E0FEE42404D0
:100CFE001225C7E54B25E0FEE424051225C7E54B7A
:100D0E0025E0FEE424011221EF900017E0B5070460
:100D1E007C0180027C00E54B7F0025E0FE1221F372
:100D2E00900016E0B507047F0180027F00EF5CFCA7
:100D3E00E54B25E0FEE424021221EF900018E0B509
:100D4E0007047F0180027F00EF5CFCE54B25E0FE8F
:100D5E00E424031221EF900019E0B507047F01800F
:100D6E00027F00EF5CFCE54B25E0FEE4240412213B
:100D7E00EF90001AE0B507047F0180027F00EF5C60
:100D8E00FC1221E790001BE0B507047F0180027F73
:100D9E0000EF5CF552020CBE054BE54B7002054AA6
:0E0DAE00C39406E54A94005003020CBBC20C2D
:010DBC002214
:10260900EF1392C3EFA2E192C2A2E292FBA2E3927C
:0E261900FAA2E492F9A2E592C1A2E692F8229A
:10250E00E52B24FD600D04700F900021E4937E00F6
:10251E00FF800D9000228003900020E493FF7E0048
:10252E00EF540FF547EEC4F854F0C8EFC4540F48FB
:02253E00F5485E
:012540002278
:101C7A001538E538702F753864D390001EE0943B10
:101C8A0090001DE09402500FE53925E0543FF539E4
:101C9A007010753901800BE539C313F53970037576
:101CAA00392085394990001DE0FEA3E0FFD3943B1B
:101CBA00EE9402505AC3743B9FFB74029EFAD3EB14
:101CCA0094C7EA94004002805D7C007D0AAF03AEAF
:101CDA00021215AD8D477C007D0AAF03AE021215C4
:101CEA00ADAA06AB077C007D0A1215AD8D487C00B3
:101CFA007D0AAF03AE021215AD7C007D0A1215AD46
:101D0A0074942DF58274243CF583E493F54922906A
:101D1A00001EE024C5FB90001DE034FDFAD3EB94CD
:101D2A00C7EA940040307C007D0AAF03AE02121568
:101D3A00AD8D477C007D0AAF03AE021215ADAA062F
:101D4A00AB077C007D0A1215AD8D487C007D0AAF79
:101D5A0003AE020215ADD3EB9463EA94007C007DD6
:101D6A000AAF03AE02402C1215AD8D477C007D0AE6
:101D7A00AF03AE021215ADAA06AB077C007D0A12AC
:101D8A0015AD8D487C007D0AAF03AE021215AD7504
:101D9A004946221215AD8D477C007D0AAF03AE027B
:101DAA001215ADAA06AB077C007D0A1215AD8D4847
:0E1DBA007C007D0AAF03AE021215AD754940E4
:011DC80022F8
:10257100E529541FFB7C007D0AFF7E001215AD8DFD
:10258100477C007D0AAF037E001215AD7C007D0AF9
:0F2591001215AD8D48E529C41354075403F549BD
:0125A0002218
:0D267D00E549540FF547E549C4540FF548F1
:01268A00222D
:0100060022D7
:0100070022D6
:1025A100E52B24FC601014601014601014601024DA
:1025B10004700F02250E021C7A02257102267D028B
:0625C100000612000722D3
:10266100EF700475BCE322BF010475BCE422BF0214
:0C2671000475BCE522BF030375BCE22227
:09278B00E4F5BDF5BE43BC0822D3
:10264400E5BC30E4FB53BCE7AFBDEF75F004A4FF79
:0D265400E5BE54037C002FFFEC35F0FE22A4
:101B010020CA0E900001E0C394C85011E004F08097
:101B11000C900001E0D394004003E014F020840E07
:101B2100900002E0C394C85011E004F0800C9000D2
:101B310002E0D394004003E014F020830E900003F0
:101B4100E0C394C85011E004F0800C900003E0D38E
:101B510094004003E014F020A70E900007E0C39426
:101B6100C85011E004F0800C900007E0D3940040CD
:101B710003E014F020FC0E900008E0C394C850115B
:101B8100E004F0800C900008E0D394004003E014DE
:101B9100F020FD0E900009E0C394C85011E004F05C
:101BA100800C900009E0D394004003E014F020FE83
:101BB1000E90000AE0C394C85011E004F0800C902C
:101BC100000AE0D394004003E014F020FF0E9000DF
:101BD1000BE0C394C85011E004F0800C90000BE0BE
:101BE100D394004003E014F020C50E90000CE0C334
:101BF10094C85011E004F0800C90000CE0D39400E4
:101C01004003E014F020C60E90000DE0C394C850CC
:101C110011E004F0800C90000DE0D394004003E04B
:101C210014F020800E90000EE0C394C85011E0041F
:101C3100F0800C90000EE0D394004003E014F020FB
:101C4100810E90000FE0C394C85011E004F0800CA5
:101C510090000FE0D394004003E014F020820D9037
:101C61000010E0C394C85010E004F022900010E08E
:091C7100D394004003E014F022BA
:101EA500854347854449854548300003021F48E579
:101EB50048C3942850047F0180027F00E547C394FE
:101EC5002850047E0180027E00EE5FFFE549C39441
:101ED5002850047E0180027E00EE5F6066E547C300
:101EE50095485030E549954740047F0180027F00C1
:101EF500E549C3954850047E0180027E00EE5F608F
:101F050008E524603E1524803AE524C394C850337F
:101F15000524802FE549D3954740047F0180027F42
:101F250000E549C3954850047E0180027E00EE4FCE
:101F35006008E524600D15248009E524C394C85084
:101F4500020524E524D39464400875249675296711
:041F5500D200A20014
:011F59002265
:10175500E52CD3949B40030219D7900042E0FCA3EB
:10176500E0FDE41213EB7B7C7AEF790D78421213DE
:1017750079600840067F01C00780047F00C007909C
:101785000040E0FCA3E0FDE41213EB7B7C7AEF79EB
:101795000D7842121379600640047E0180027E00B6
:1017A500D0E05EFFC007900044E0FCA3E0FDE4123A
:1017B50013EB7B7C7AEF790D784212137960064042
:1017C500047E0180027E00D0E05EFFC007900046E7
:1017D500E0FCA3E0FDE41213EB7B7C7AEF790D7856
:1017E50042121379600640047E0180027E00D0E03B
:1017F5005E60030219D7300E70900042E0FCA3E052
:10180500FDE41213EB7B3A7AE779D4784212137927
:1018150050067F01C00780047F00C007900040E0AC
:10182500FCA3E0FDE41213EB7B3A7AE779D4784226
:1018350012137950047E0180027E00D0E05EFFC065
:1018450007900044E0FCA3E0FDE41213EB7B3A7A39
:10185500E779D4784212137950047E0180027E0024
:10186500D0E05E6076C20E807B900042E0FCA3E093
:10187500FDE41213EB7B3A7AE779D47842121379B7
:10188500600840067F01C00780047F00C007900004
:1018950040E0FCA3E0FDE41213EB7B3A7AE779D450
:1018A5007842121379600640047E0180027E00D0E2
:1018B500E04EFFC007900044E0FCA3E0FDE41213F6
:1018C500EB7B3A7AE779D4784212137960064004C3
:1018D5007E0180027E00D0E04E6007D20E7529752C
:1018E5008002C20E300D76900042E0FCA3E0FDE4DC
:1018F5001213EB7B7C7AEF790D784312137960082C
:1019050040067F01C00780047F00C007900040E0CB
:10191500FCA3E0FDE41213EB7B7C7AEF790D7843B1
:10192500121379600640047E0180027E00D0E05EDD
:10193500FFC007900044E0FCA3E0FDE41213EB7B3D
:101945007C7AEF790D7843121379600640047E01A5
:1019550080027E00D0E05E6070C20D80759000420E
:10196500E0FCA3E0FDE41213EB7B7C7AEF790D78C4
:101975004312137950067F01C00780047F00C0071A
:10198500900040E0FCA3E0FDE41213EB7B7C7AEFD2
:10199500790D784312137950047E0180027E00D0C0
:1019A500E04EFFC007900044E0FCA3E0FDE4121305
:1019B500EB7B7C7AEF790D784312137950047E0125
:1019C50080027E00D0E04E6007D20D75297480023A
:1019D500C20DE53AD394014004C20DC20E900042F7
:1019E500E0FCA3E0FDE41213EB7B7C7AEF790D7844
:1019F50042121379600840067F01C00780047F000A
:101A0500C007900040E0FCA3E0FDE41213EB7B7CF3
:101A15007AEF790D7842121379600640047E0180D1
:101A2500027E00D0E04EFFC007900044E0FCA3E03A
:101A3500FDE41213EB7B7C7AEF790D784212137972
:101A4500600640047E0180027E00D0E04EFFC007A4
:101A5500900046E0FCA3E0FDE41213EB7B7C7AEFFB
:101A6500790D7842121379600640047E0180027E6A
:101A750000D0E04EFFC007900042E0FCA3E0FDE48B
:101A85001213EB7B3A7AE779D47842121379500630
:101A95007F01C00780047F00C007900040E0FCA3E1
:101AA500E0FDE41213EB7B3A7AE779D4784212131E
:101AB5007950047E0180027E00D0E04EFFC0079081
:101AC5000044E0FCA3E0FDE41213EB7B3A7AE779EE
:101AD500D4784212137950047E0180027E00D0E052
:101AE5004EFED0E05E6007D2017529688002C20112
:0C1AF500121EA5A20E720D7201720022DA
:101DC900D3900038E094F4900037E0940150030276
:101DD9001E6BE0FEA3E0FBAA06E4F9F890003CE0E4
:101DE900FCA3E0FDA3E0FEA3E0FF12163E90001D58
:101DF900EEF0A3EFF0E4FCFD90003C121718900000
:101E090037E4F0A304F0C29990003CE0FCA3E0FDA4
:101E1900A3E0FEA3E0FF78181217058F993099FD0A
:101E2900C29990003CE0FCA3E0FDA3E0FEA3E0FF23
:101E390078101217058F993099FDC29990003CE0EE
:101E4900FCA3E0FDA3E0FEA3E0FF78081217058FCD
:101E5900993099FDC29990003CA3A3A3E0F599306C
:101E690099FDAE3EAF3F7C077DD01215ADC3900002
:101E79001EE09FFF90001DE09EFEC3EF943BEE9491
:101E8900025008C207D2B5D2A58009C2A5C2B5754C
:0C1E9900296AD207300B02C207A2072200
:101FEE00D210C20B900000E0C39432500375292129
:101FFE00900001E0C394325003752921900002E055
:10200E00C3943250057529238066900003E0C39473
:10201E003250057529228058900004E0C394325046
:10202E0005752921804A900005E0C394325005754C
:10203E002931803C900006E0C3943250057529305A
:10204E00802E900007E0C3943250057529648020DD
:10205E00900008E0C39432500575297280129000EA
:10206E0009E0C3943250057529698004C210D20B61
:02207E00A210AE
:01208000223D
:10227500D21090000AE0D39400404BD205A3E0941D
:1022850032500575292B804290000CE0C3943250E2
:1022950005752973803490000DE0C394325005759F
:1022A50029618026752902D20BAE3EAF3FE4FCFDC5
:1022B5007B607AEAF9F8D31216DE400E053FE53F5A
:0C22C5007008053E8004C210C20BA2107D
:0122D10022EA
:1023BE00D21090000EE0D39496403AD205A3E0944A
:1023CE0032500A75292CE4F53EF53F802C90001012
:1023DE00E0C394325005752961801E752903D20B16
:1023EE00D3E53F9400E53E9400400EE53F153F7067
:0B23FE0008153E8004C210C20BA210A4
:0124090022B0
:0D269800C20B30050475290122E4F529224A
:1022D200121DC940261217554021300511121FEE5A
:1022E200401912227540141223BE400F800A122296
:1022F2007540081223BE4003122698E52CD394EBB6
:102302004014300005C2B2752CFF90000EE0D39449
:1023120096400FC2B322A20072077201720A92B2F1
:03232200C2B32221
:0324D40075292146
:1024D700E4FFE52930E0010FE52930E1010FE529A7
:1024E70030E2010FE52930E3010FE52930E4010F60
:1024F700E52930E5010FE52930E6010FEF30E00669
:0625070074802529F5296E
:01250D0022AB
:1025EA00758DFB758BFB75985875D6FF75D7107569
:0F25FA009A5875AC98758498758E14438E01228B
:03000B00020DBD26
:100DBD00C0E0C0F0C083C082C0D075D000C000C0FC
:0D0DCD0001C002C003C004C005C006C0077D
:100DDA00758CFE758ACD75C13E900049E004F070AD
:100DEA0006900048E004F0D3900049E0940F900088
:100DFA0048E09427400FE52B94045002052B9000FD
:100E0A0048E4F0A3F0300503752B05300C081225D1
:100E1A00A1D2060212BE12278B121B01E5466003FD
:100E2A00020FC090003CE0F8A3E0F9A3E0FAA3E0C7
:100E3A00FB900035E0FEA3E0FFE4FCFDEB2FFFEAA8
:100E4A003EFEED39FDEC38FC90003C12171890007C
:100E5A0038E004F07006900037E004F0D3900015F3
:100E6A00E09400900014E09400400CA3E024FFF00A
:100E7A00900014E034FFF00532E53270020531AE1D
:100E8A0031FF7C007D1F1215AD8D26E52660030219
:100E9A000FB81222D2D3E53294D8E5319404500324
:100EAA00020F85AE31AF32AB07AA06E4F9F890001B
:100EBA001FE0FCA3E0FDA3E0FEA3E0FF12163E90B4
:100ECA000040EEF0A3EFF090001F1217240000007C
:100EDA0000AE31AF32AB07AA06E4F9F8900023E07E
:100EEA00FCA3E0FDA3E0FEA3E0FF12163E90004241
:100EFA00EEF0A3EFF09000231217240000000090F8
:100F0A000027E0FCA3E0FDA3E0FEA3E0FFE4121348
:100F1A00E67B147AAE7987783F1212DC1214249099
:100F2A000027121718900042E0FFA3E0A3CFF0A316
:100F3A00EFF090002712172400000000AE31AF3204
:100F4A00AB07AA06E4F9F890002BE0FCA3E0FDA3A6
:100F5A00E0FEA3E0FF12163E900046EEF0A3EFF08B
:100F6A0090002B1217240000000075310075320022
:100F7A00053AE53A75F0058485F03A300B13D3E566
:100F8A0032946CE53194024003D38001C392C88045
:100F9A0002C2C81224D7539AFD85299BE52CD39403
:100FAA00004002152CE52C700D752C648008E5268E
:100FBA0030E0031225A1E5466401600302108F9018
:100FCA00002FE0FEA3E0FFC3E49FFF74049EFE909F
:100FDA00002FF0A3EFF0D39400EE94024033900078
:100FEA002FE0FEA3E0FFE4FCFD90001FE0F8A3E081
:100FFA00F9A3E0FAA3E02FFFEA3EFEED39FDEC3853
:10100A00FCE42FFFEE34FEFEED34FFFDEC34FF80EE
:10101A003A90001FE0FCA3E0FDA3E0FEA3E0240059
:10102A00FFEE3402FEE43DFDE43CFCC006C007903E
:10103A00002FE0FEA3E0FBAA06D007D006C3EF9B71
:10104A00FFEE9AFEED9400FDEC9400FC90001F1256
:10105A001718200216D3900030E0944090002FE039
:10106A0094024018D2027543008011C3900030E008
:10107A0094C090002FE094015002C202E543C39449
:10108A00C750020543E54664026003021147900017
:10109A0031E0FEA3E0FFD39400EE9402402BE4FC7F
:1010AA00FD900023E0F8A3E0F9A3E0FAA3E02FFF04
:1010BA00EA3EFEED39FDEC38FCE42FFFEE34FEFE8D
:1010CA00ED34FFFDEC34FF803A900023E0FCA3E00E
:1010DA00FDA3E0FEA3E02400FFEE3402FEE43DFDA2
:1010EA00E43CFCC006C007900031E0FEA3E0FBAA86
:1010FA0006D007D006C3EF9BFFEE9AFEED9400FDE3
:10110A00EC9400FC900023121718200316D39000C9
:10111A0032E09440900031E094024018D2037544C2
:10112A00008011C3900032E094C0900031E0940135
:10113A005002C203E544C394C750020544E546641D
:10114A0003600302129E900033E0FEA3E0FFD394F3
:10115A0000EE9402402BE4FCFD90002BE0F8A3E0A3
:10116A00F9A3E0FAA3E02FFFEA3EFEED39FDEC38E1
:10117A00FCE42FFFEE34FEFEED34FFFDEC34FF807D
:10118A003A90002BE0FCA3E0FDA3E0FEA3E02400DC
:10119A00FFEE3402FEE43DFDE43CFCC006C00790CD
:1011AA000033E0FEA3E0FBAA06D007D006C3EF9BFC
:1011BA00FFEE9AFEED9400FDEC9400FC90002B12D9
:1011CA001718900031E0FEA3E0FF900030E02FFFF7
:1011DA0090002FE03EFEC3E49FFF74069EFE90003F
:1011EA0033F0A3EFF0D39400EE940240339000332F
:1011FA00E0FEA3E0FFE4FCFD900027E0F8A3E0F99D
:10120A00A3E0FAA3E02FFFEA3EFEED39FDEC38FC3D
:10121A00E42FFFEE34FEFEED34FFFDEC34FF803A9E
:10122A00900027E0FCA3E0FDA3E0FEA3E02400FF7A
:10123A00EE3402FEE43DFDE43CFCC006C00790002B
:10124A0033E0FEA3E0FBAA06D007D006C3EF9BFF5C
:10125A00EE9AFEED9400FDEC9400FC900027121724
:10126A0018200416D3900034E09440900033E094A0
:10127A00024018D2047545008011C3900034E094EE
:10128A00C0900033E094015002C204E545C394C7FC
:10129A0050020545122644E54625E0242FF582E44E
:1012AA003400F583EEF0A3EFF0E546045403F54667
:0412BA00FF12266198
:1012BE00D007D006D005D004D003D002D001D00084
:0B12CE00D0D0D082D083D0F0D0E0322E
:030003000226A52D
:0A26A500C2997599002099F880FB96
:030013000226AF13
:0A26AF00C2997599022099F880FB8A
:03001B000226B901
:0A26B900C2997599032099F880FB7F
:030023000226C3EF
:0A26C300C2997599042099F880FB74
:03002B000226CDDD
:0A26CD00C2997599052099F880FB69
:030033000226D7CB
:0A26D700C2997599062099F880FB5E
:03003B000226E1B9
:0A26E100C2997599072099F880FB53
:030043000226EBA7
:0A26EB00C2997599082099F880FB48
:03004B000226F595
:0A26F500C2997599092099F880FB3D
:030053000226FF83
:0A26FF00C2997599102099F880FB2C
:03005B0002270970
:0A270900C2997599112099F880FB20
:030063000227135E
:0A271300C2997599122099F880FB15
:03006B0002271D4C
:0A271D00C2997599132099F880FB0A
:030073000227273A
:0A272700C2997599142099F880FBFF
:03007B0002273128
:0A273100C2997599152099F880FBF4
:0300830002273B16
:0A273B00C2997599162099F880FBE9
:03008B0002274504
:0A274500C2997599172099F880FBDE
:0300930002274FF2
:0A274F00C2997599182099F880FBD3
:03009B00022759E0
:0A275900C2997599192099F880FBC8
:0300A300022763CE
:0A276300C2997599202099F880FBB7
:0300AB0002276DBC
:0A276D00C2997599212099F880FBAC
:0300B300022777AA
:0A277700C2997599222099F880FBA1
:0300BB0002278198
:0A278100C2997599232099F880FB96
:101F5A00E4F5A8758CFE758ACD758921D28CD2A933
:101F6A001225EA75BC6043BC80C2B8D2B9F5B57512
:101F7A00BC6043BC80F593F5947591FC7592FCF5B1
:101F8A0095F596F5B175B2FCF5B3F5B4F5C975CA10
:101F9A0003F5E1F5E2F529C208C207C200C201C28F
:101FAA0005D2B3C2B290001DF0A3F0900037F0A39F
:101FBA0004F0C202C203C204E4F524F543F544F571
:101FCA0045F528F526752CFFF53EF53FF534F53530
:101FDA00C209C20A1200BED2AFC2B4122113000053
:041FEA00000080F57E
:1012D90002149AEC5D046005E85904700302149045
:1012E90012145B580460F6EC4860F2EC7004FDFEE1
:1012F900FF22C860DB2481C85009C39860025006E8
:101309000214979850CAF582E9294B4A7005AB82B5
:1013190002148675F0007C1A7880C3EF9BEE9AED73
:1013290099400DC3EF9BFFEE9AFEED99FDE842F05F
:10133900DC23ACF0D0E0FFD0E0FED0E0FDAB8220B2
:10134900E7101BEB60BAEC2CFCEF33FFEE33FEED3C
:1013590033FD021472E803F830E705C0F075F000B8
:10136900EF2FFFEE33FEED33FD40B830E7C280AA20
:1013790074F8CC6480CCC86480C8F582046043C327
:10138900EB9FF5F0EA9E42F0E99D42F0E89C45F0BA
:1013990060305018E5825FFFE582F42B5582FB50DF
:1013A900210ABA001D09B90019088016E5825BFBFC
:1013B900E582F42F5582FF50090EBE00050DBD00D0
:1013C900010CC3EB9FF5F0EA9E42F0E99D42F0E87B
:0D13D9009C45F06007CC4820E701B3EC22F2
:1013E60075F020800E75F010800575F0087D007E82
:1013F600007F003392D530D5031216D0EC3340105F
:10140600EF33FFEE33FEED33FDEC33FCD5F0ED228A
:0E141600E5F0247EA2D513CC92E7CDCEFF22C6
:10142400EDD2E7CD33EC3392D524814006E4FFFEC0
:10143400FDFC22FCE4CFCECDCC24E0501174FF801F
:10144400EDC3CC13CCCD13CDCE13CECF13CF0470BC
:07145400F030D5DE0216D0D6
:10145B00E9D2E7C933E833F892D5EDD2E7CD33ECD7
:07146B0033FC5002B2D52250
:10147200EC30E7100FBF000C0EBE00080DBD0004DB
:101482000BEB6014A2D5EB13FCED92E7FD2274FF87
:10149200FCFDFEFF22E480F8A2D574FF13FC7D80E0
:0314A200E480EFF4
:030000000220815A
:0C208100787FE4F6D8FD7581600220C86D
:1014A500E709F608DFFA8046E709F208DFFA803E29
:1014B50088828C83E709F0A3DFFA8032E309F60816
:1014C500DFFA8078E309F208DFFA807088828C837E
:1014D500E309F0A3DFFA806489828A83E0A3F60832
:1014E500DFFA805889828A83E0A3F208DFFA804C0C
:1014F50080D280FA80C680D4806980F280338010E3
:1015050080A680EA809A80A880DA80E280CA80334B
:1015150089828A83ECFAE493A3C8C582C8CCC583C3
:10152500CCF0A3C8C582C8CCC583CCDFE9DEE78093
:101535000D89828A83E493A3F608DFF9ECFAA9F012
:10154500EDFB2289828A83ECFAE0A3C8C582C8CC68
:10155500C583CCF0A3C8C582C8CCC583CCDFEADE81
:10156500E880DB89828A83E493A3F208DFF980CCE3
:1015750088F0EF60010E4E60C388F0ED2402B404DC
:101585000050B9F582EB2402B4040050AF23234583
:0615950082239014F5739F
:10159B00EF8DF0A4A8F0CF8CF0A428CE8DF0A42E64
:0215AB00FE221E
:1015AD00BC000BBE0029EF8DF084FFADF022E4CC22
:1015BD00F875F008EF2FFFEE33FEEC33FCEE9DECEB
:1015CD00984005FCEE9DFE0FD5F0E9E4CEFD22ED31
:1015DD00F8F5F0EE8420D21CFEADF075F008EF2F7B
:1015ED00FFED33FD4007985006D5F0F222C398FD6C
:0515FD000FD5F0EA2209
:1016020075F008758200EF2FFFEE33FECD33CDCC9F
:1016120033CCC58233C5829BED9AEC99E582984022
:101622000CF582EE9BFEED9AFDEC99FC0FD5F0D6FF
:10163200E4CEFBE4CDFAE4CCF9A88222B800C1B929
:101642000059BA002DEC8BF084CFCECDFCE5F0CB67
:10165200F97818EF2FFFEE33FEED33FDEC33FCEBA0
:1016620033FB10D703994004EB99FB0FD8E5E4F95B
:10167200FA227818EF2FFFEE33FEED33FDEC33FC48
:10168200C933C910D7059BE99A4007EC9BFCE99A3C
:10169200F90FD8E0E4C9FAE4CCFB2275F010EF2F81
:1016A200FFEE33FEED33FDCC33CCC833C810D70781
:1016B2009BEC9AE899400AED9BFDEC9AFCE899F8BC
:0E16C2000FD5F0DAE4CDFBE4CCFAE4C8F9224F
:0E16D000C3E49FFFE49EFEE49DFDE49CFC222B
:1016DE00EB9FF5F0EA9E42F0E99D42F0EC6480C883
:0616EE0064809845F02223
:1016F400EB9FF5F0EA9E42F0E99D42F0E89C45F04C
:0117040022C2
:10170500E8600FECC313FCED13FDEE13FEEF13FFC2
:03171500D8F122E6
:0C171800ECF0A3EDF0A3EEF0A3EFF02244
:10172400A8828583F0D083D08212173B12173B1214
:10173400173B12173BE473E493A3C583C5F0C58339
:10174400C8C582C8F0A3C583C5F0C583C8C582C80F
:011754002272
:10208D00021F5AE493A3F8E493A34003F68001F2F0
:10209D0008DFF48029E493A3F85407240CC8C33354
:1020AD00C4540F4420C8834004F456800146F6DF23
:1020BD00E4800B0102040810204080902210E47E81
:1020CD00019360BCA3FF543F30E509541FFEE49318
:1020DD00A360010ECF54C025E060A840B8E493A3DF
:1020ED00FAE493A3F8E493A3C8C582C8CAC583CA0A
:1020FD00F0A3C8C582C8CAC583CADFE9DEE780BEC2
:012274000069
:00000001FF
